{
  "contractName": "Profile",
  "abi": [
    {
      "inputs": [],
      "stateMutability": "payable",
      "type": "constructor",
      "payable": true
    },
    {
      "anonymous": false,
      "inputs": [
        {
          "indexed": false,
          "internalType": "string",
          "name": "",
          "type": "string"
        },
        {
          "indexed": false,
          "internalType": "address",
          "name": "",
          "type": "address"
        }
      ],
      "name": "existingPlayer",
      "type": "event"
    },
    {
      "anonymous": false,
      "inputs": [
        {
          "indexed": false,
          "internalType": "string",
          "name": "",
          "type": "string"
        },
        {
          "indexed": false,
          "internalType": "address",
          "name": "",
          "type": "address"
        },
        {
          "indexed": false,
          "internalType": "uint256",
          "name": "",
          "type": "uint256"
        }
      ],
      "name": "newPlayer",
      "type": "event"
    },
    {
      "inputs": [
        {
          "internalType": "address",
          "name": "",
          "type": "address"
        }
      ],
      "name": "addToPlayer",
      "outputs": [
        {
          "internalType": "string",
          "name": "username",
          "type": "string"
        },
        {
          "internalType": "uint256",
          "name": "game",
          "type": "uint256"
        },
        {
          "internalType": "uint256",
          "name": "maxWin",
          "type": "uint256"
        },
        {
          "internalType": "uint256",
          "name": "totalCashFlow",
          "type": "uint256"
        },
        {
          "internalType": "uint256",
          "name": "cashInBank",
          "type": "uint256"
        },
        {
          "internalType": "address",
          "name": "addPlayer",
          "type": "address"
        },
        {
          "internalType": "bool",
          "name": "exist",
          "type": "bool"
        }
      ],
      "stateMutability": "view",
      "type": "function",
      "constant": true
    },
    {
      "inputs": [
        {
          "internalType": "address",
          "name": "",
          "type": "address"
        }
      ],
      "name": "indirizzoEsiste",
      "outputs": [
        {
          "internalType": "bool",
          "name": "",
          "type": "bool"
        }
      ],
      "stateMutability": "view",
      "type": "function",
      "constant": true
    },
    {
      "inputs": [],
      "name": "addEther",
      "outputs": [
        {
          "internalType": "bool",
          "name": "",
          "type": "bool"
        }
      ],
      "stateMutability": "payable",
      "type": "function",
      "payable": true
    },
    {
      "inputs": [],
      "name": "getStato",
      "outputs": [
        {
          "internalType": "uint256",
          "name": "",
          "type": "uint256"
        },
        {
          "internalType": "uint256",
          "name": "",
          "type": "uint256"
        }
      ],
      "stateMutability": "view",
      "type": "function",
      "constant": true
    },
    {
      "inputs": [
        {
          "internalType": "uint256",
          "name": "x",
          "type": "uint256"
        }
      ],
      "name": "cashOut",
      "outputs": [],
      "stateMutability": "nonpayable",
      "type": "function"
    },
    {
      "inputs": [
        {
          "internalType": "string",
          "name": "_username",
          "type": "string"
        }
      ],
      "name": "setUsername",
      "outputs": [
        {
          "internalType": "string",
          "name": "",
          "type": "string"
        }
      ],
      "stateMutability": "nonpayable",
      "type": "function"
    },
    {
      "inputs": [],
      "name": "getStatoUtente",
      "outputs": [
        {
          "internalType": "string",
          "name": "",
          "type": "string"
        },
        {
          "internalType": "uint256",
          "name": "",
          "type": "uint256"
        },
        {
          "internalType": "uint256",
          "name": "",
          "type": "uint256"
        },
        {
          "internalType": "uint256",
          "name": "",
          "type": "uint256"
        },
        {
          "internalType": "uint256",
          "name": "",
          "type": "uint256"
        },
        {
          "internalType": "address",
          "name": "",
          "type": "address"
        },
        {
          "internalType": "bool",
          "name": "",
          "type": "bool"
        }
      ],
      "stateMutability": "view",
      "type": "function",
      "constant": true
    },
    {
      "inputs": [
        {
          "internalType": "string",
          "name": "_name",
          "type": "string"
        }
      ],
      "name": "addPlayer",
      "outputs": [
        {
          "internalType": "address",
          "name": "",
          "type": "address"
        }
      ],
      "stateMutability": "payable",
      "type": "function",
      "payable": true
    }
  ],
  "bytecode": "0x6080604052670de0b6b3a764000060015530600260006101000a81548173ffffffffffffffffffffffffffffffffffffffff021916908373ffffffffffffffffffffffffffffffffffffffff160217905550336000806101000a81548173ffffffffffffffffffffffffffffffffffffffff021916908373ffffffffffffffffffffffffffffffffffffffff1602179055506040518060e001604052806040518060400160405280600781526020017f5f6164696c5f320000000000000000000000000000000000000000000000000081525081526020016000815260200160008152602001600081526020016000815260200160008054906101000a900473ffffffffffffffffffffffffffffffffffffffff1673ffffffffffffffffffffffffffffffffffffffff16815260200160011515815250600360008060009054906101000a900473ffffffffffffffffffffffffffffffffffffffff1673ffffffffffffffffffffffffffffffffffffffff1673ffffffffffffffffffffffffffffffffffffffff1681526020019081526020016000206000820151816000019081620001ad9190620004c0565b506020820151816001015560408201518160020155606082015181600301556080820151816004015560a08201518160050160006101000a81548173ffffffffffffffffffffffffffffffffffffffff021916908373ffffffffffffffffffffffffffffffffffffffff16021790555060c08201518160050160146101000a81548160ff021916908315150217905550905050620005a7565b600081519050919050565b7f4e487b7100000000000000000000000000000000000000000000000000000000600052604160045260246000fd5b7f4e487b7100000000000000000000000000000000000000000000000000000000600052602260045260246000fd5b60006002820490506001821680620002c857607f821691505b602082108103620002de57620002dd62000280565b5b50919050565b60008190508160005260206000209050919050565b60006020601f8301049050919050565b600082821b905092915050565b600060088302620003487fffffffffffffffffffffffffffffffffffffffffffffffffffffffffffffffff8262000309565b62000354868362000309565b95508019841693508086168417925050509392505050565b6000819050919050565b6000819050919050565b6000620003a16200039b62000395846200036c565b62000376565b6200036c565b9050919050565b6000819050919050565b620003bd8362000380565b620003d5620003cc82620003a8565b84845462000316565b825550505050565b600090565b620003ec620003dd565b620003f9818484620003b2565b505050565b5b81811015620004215762000415600082620003e2565b600181019050620003ff565b5050565b601f82111562000470576200043a81620002e4565b6200044584620002f9565b8101602085101562000455578190505b6200046d6200046485620002f9565b830182620003fe565b50505b505050565b600082821c905092915050565b6000620004956000198460080262000475565b1980831691505092915050565b6000620004b0838362000482565b9150826002028217905092915050565b620004cb8262000246565b67ffffffffffffffff811115620004e757620004e662000251565b5b620004f38254620002af565b6200050082828562000425565b600060209050601f83116001811462000538576000841562000523578287015190505b6200052f8582620004a2565b8655506200059f565b601f1984166200054886620002e4565b60005b8281101562000572578489015182556001820191506020850194506020810190506200054b565b868310156200059257848901516200058e601f89168262000482565b8355505b6001600288020188555050505b505050505050565b6117aa80620005b76000396000f3fe60806040526004361061007b5760003560e01c8063ed59313a1161004e578063ed59313a14610147578063f3bd38fa14610184578063f77e8b83146101b0578063fbb83ddb146101e05761007b565b806347478d52146100805780635c7b79f5146100c35780638894dd2b146100ec578063cf108a6b1461010a575b600080fd5b34801561008c57600080fd5b506100a760048036038101906100a29190610cd7565b610211565b6040516100ba9796959493929190610dd7565b60405180910390f35b3480156100cf57600080fd5b506100ea60048036038101906100e59190610e79565b610308565b005b6100f4610540565b6040516101019190610ea6565b60405180910390f35b34801561011657600080fd5b50610131600480360381019061012c9190610cd7565b6105e4565b60405161013e9190610ea6565b60405180910390f35b34801561015357600080fd5b5061016e60048036038101906101699190610ff6565b610604565b60405161017b919061103f565b60405180910390f35b34801561019057600080fd5b50610199610734565b6040516101a7929190611061565b60405180910390f35b6101ca60048036038101906101c59190610ff6565b610756565b6040516101d7919061108a565b60405180910390f35b3480156101ec57600080fd5b506101f56108e6565b6040516102089796959493929190610dd7565b60405180910390f35b6003602052806000526040600020600091509050806000018054610234906110d4565b80601f0160208091040260200160405190810160405280929190818152602001828054610260906110d4565b80156102ad5780601f10610282576101008083540402835291602001916102ad565b820191906000526020600020905b81548152906001019060200180831161029057829003601f168201915b5050505050908060010154908060020154908060030154908060040154908060050160009054906101000a900473ffffffffffffffffffffffffffffffffffffffff16908060050160149054906101000a900460ff16905087565b6000600360003373ffffffffffffffffffffffffffffffffffffffff1673ffffffffffffffffffffffffffffffffffffffff168152602001908152602001600020600401541161038d576040517f08c379a000000000000000000000000000000000000000000000000000000000815260040161038490611151565b60405180910390fd5b80600360003373ffffffffffffffffffffffffffffffffffffffff1673ffffffffffffffffffffffffffffffffffffffff168152602001908152602001600020600401541015610412576040517f08c379a0000000000000000000000000000000000000000000000000000000008152600401610409906111bd565b60405180910390fd5b47600360003373ffffffffffffffffffffffffffffffffffffffff1673ffffffffffffffffffffffffffffffffffffffff168152602001908152602001600020600401541115610497576040517f08c379a000000000000000000000000000000000000000000000000000000000815260040161048e9061124f565b60405180910390fd5b600033905081600360003373ffffffffffffffffffffffffffffffffffffffff1673ffffffffffffffffffffffffffffffffffffffff16815260200190815260200160002060040160008282546104ee919061129e565b925050819055508073ffffffffffffffffffffffffffffffffffffffff166108fc839081150290604051600060405180830381858888f1935050505015801561053b573d6000803e3d6000fd5b505050565b6000803411610584576040517f08c379a000000000000000000000000000000000000000000000000000000000815260040161057b90611344565b60405180910390fd5b34600360003373ffffffffffffffffffffffffffffffffffffffff1673ffffffffffffffffffffffffffffffffffffffff16815260200190815260200160002060040160008282546105d69190611364565b925050819055506001905090565b60046020528060005260406000206000915054906101000a900460ff1681565b60603373ffffffffffffffffffffffffffffffffffffffff16600360003373ffffffffffffffffffffffffffffffffffffffff1673ffffffffffffffffffffffffffffffffffffffff16815260200190815260200160002060050160009054906101000a900473ffffffffffffffffffffffffffffffffffffffff1673ffffffffffffffffffffffffffffffffffffffff16146106d6576040517f08c379a00000000000000000000000000000000000000000000000000000000081526004016106cd9061140a565b60405180910390fd5b600082905080600360003373ffffffffffffffffffffffffffffffffffffffff1673ffffffffffffffffffffffffffffffffffffffff168152602001908152602001600020600001908161072a91906115d6565b5080915050919050565b600080670de0b6b3a76400004761074b91906116d7565b600154915091509091565b60008082511161079b576040517f08c379a000000000000000000000000000000000000000000000000000000000815260040161079290611754565b60405180910390fd5b600033905060006040518060e00160405280858152602001600081526020016000815260200160008152602001600081526020018373ffffffffffffffffffffffffffffffffffffffff16815260200160011515815250905080600360008473ffffffffffffffffffffffffffffffffffffffff1673ffffffffffffffffffffffffffffffffffffffff168152602001908152602001600020600082015181600001908161084991906115d6565b506020820151816001015560408201518160020155606082015181600301556080820151816004015560a08201518160050160006101000a81548173ffffffffffffffffffffffffffffffffffffffff021916908373ffffffffffffffffffffffffffffffffffffffff16021790555060c08201518160050160146101000a81548160ff0219169083151502179055509050508192505050919050565b60606000806000806000803373ffffffffffffffffffffffffffffffffffffffff16600360003373ffffffffffffffffffffffffffffffffffffffff1673ffffffffffffffffffffffffffffffffffffffff16815260200190815260200160002060050160009054906101000a900473ffffffffffffffffffffffffffffffffffffffff1673ffffffffffffffffffffffffffffffffffffffff16146109c1576040517f08c379a00000000000000000000000000000000000000000000000000000000081526004016109b89061140a565b60405180910390fd5b600360003373ffffffffffffffffffffffffffffffffffffffff1673ffffffffffffffffffffffffffffffffffffffff168152602001908152602001600020600001600360003373ffffffffffffffffffffffffffffffffffffffff1673ffffffffffffffffffffffffffffffffffffffff16815260200190815260200160002060010154600360003373ffffffffffffffffffffffffffffffffffffffff1673ffffffffffffffffffffffffffffffffffffffff16815260200190815260200160002060020154600360003373ffffffffffffffffffffffffffffffffffffffff1673ffffffffffffffffffffffffffffffffffffffff16815260200190815260200160002060030154600360003373ffffffffffffffffffffffffffffffffffffffff1673ffffffffffffffffffffffffffffffffffffffff16815260200190815260200160002060040154600360003373ffffffffffffffffffffffffffffffffffffffff1673ffffffffffffffffffffffffffffffffffffffff16815260200190815260200160002060050160009054906101000a900473ffffffffffffffffffffffffffffffffffffffff16600360003373ffffffffffffffffffffffffffffffffffffffff1673ffffffffffffffffffffffffffffffffffffffff16815260200190815260200160002060050160149054906101000a900460ff16868054610bce906110d4565b80601f0160208091040260200160405190810160405280929190818152602001828054610bfa906110d4565b8015610c475780601f10610c1c57610100808354040283529160200191610c47565b820191906000526020600020905b815481529060010190602001808311610c2a57829003601f168201915b50505050509650965096509650965096509650965090919293949596565b6000604051905090565b600080fd5b600080fd5b600073ffffffffffffffffffffffffffffffffffffffff82169050919050565b6000610ca482610c79565b9050919050565b610cb481610c99565b8114610cbf57600080fd5b50565b600081359050610cd181610cab565b92915050565b600060208284031215610ced57610cec610c6f565b5b6000610cfb84828501610cc2565b91505092915050565b600081519050919050565b600082825260208201905092915050565b60005b83811015610d3e578082015181840152602081019050610d23565b60008484015250505050565b6000601f19601f8301169050919050565b6000610d6682610d04565b610d708185610d0f565b9350610d80818560208601610d20565b610d8981610d4a565b840191505092915050565b6000819050919050565b610da781610d94565b82525050565b610db681610c99565b82525050565b60008115159050919050565b610dd181610dbc565b82525050565b600060e0820190508181036000830152610df1818a610d5b565b9050610e006020830189610d9e565b610e0d6040830188610d9e565b610e1a6060830187610d9e565b610e276080830186610d9e565b610e3460a0830185610dad565b610e4160c0830184610dc8565b98975050505050505050565b610e5681610d94565b8114610e6157600080fd5b50565b600081359050610e7381610e4d565b92915050565b600060208284031215610e8f57610e8e610c6f565b5b6000610e9d84828501610e64565b91505092915050565b6000602082019050610ebb6000830184610dc8565b92915050565b600080fd5b600080fd5b7f4e487b7100000000000000000000000000000000000000000000000000000000600052604160045260246000fd5b610f0382610d4a565b810181811067ffffffffffffffff82111715610f2257610f21610ecb565b5b80604052505050565b6000610f35610c65565b9050610f418282610efa565b919050565b600067ffffffffffffffff821115610f6157610f60610ecb565b5b610f6a82610d4a565b9050602081019050919050565b82818337600083830152505050565b6000610f99610f9484610f46565b610f2b565b905082815260208101848484011115610fb557610fb4610ec6565b5b610fc0848285610f77565b509392505050565b600082601f830112610fdd57610fdc610ec1565b5b8135610fed848260208601610f86565b91505092915050565b60006020828403121561100c5761100b610c6f565b5b600082013567ffffffffffffffff81111561102a57611029610c74565b5b61103684828501610fc8565b91505092915050565b600060208201905081810360008301526110598184610d5b565b905092915050565b60006040820190506110766000830185610d9e565b6110836020830184610d9e565b9392505050565b600060208201905061109f6000830184610dad565b92915050565b7f4e487b7100000000000000000000000000000000000000000000000000000000600052602260045260246000fd5b600060028204905060018216806110ec57607f821691505b6020821081036110ff576110fe6110a5565b5b50919050565b7f6e6f6e2068616920736f6c6469206461207072656c6576617265000000000000600082015250565b600061113b601a83610d0f565b915061114682611105565b602082019050919050565b6000602082019050818103600083015261116a8161112e565b9050919050565b7f6e6f6e2068616920616262617374616e7a6120736f6c64690000000000000000600082015250565b60006111a7601883610d0f565b91506111b282611171565b602082019050919050565b600060208201905081810360008301526111d68161119a565b9050919050565b7f6e6f6e20736920736f6e6f20616262617374616e7a6120666f6e7369206e656c60008201527f20636f6e74726174746f20706572207061676172746900000000000000000000602082015250565b6000611239603683610d0f565b9150611244826111dd565b604082019050919050565b600060208201905081810360008301526112688161122c565b9050919050565b7f4e487b7100000000000000000000000000000000000000000000000000000000600052601160045260246000fd5b60006112a982610d94565b91506112b483610d94565b92508282039050818111156112cc576112cb61126f565b5b92915050565b7f6e6f6e2070756f69207472617366657269726520756e61207175616e7469746160008201527f2070617269206120300000000000000000000000000000000000000000000000602082015250565b600061132e602983610d0f565b9150611339826112d2565b604082019050919050565b6000602082019050818103600083015261135d81611321565b9050919050565b600061136f82610d94565b915061137a83610d94565b92508282019050808211156113925761139161126f565b5b92915050565b7f4c27696e646972697a7a6f206e6f6e20657369737465206e656c206d6170706960008201527f6e67206f206e6f6e20636f6d62616369616e6f00000000000000000000000000602082015250565b60006113f4603383610d0f565b91506113ff82611398565b604082019050919050565b60006020820190508181036000830152611423816113e7565b9050919050565b60008190508160005260206000209050919050565b60006020601f8301049050919050565b600082821b905092915050565b60006008830261148c7fffffffffffffffffffffffffffffffffffffffffffffffffffffffffffffffff8261144f565b611496868361144f565b95508019841693508086168417925050509392505050565b6000819050919050565b60006114d36114ce6114c984610d94565b6114ae565b610d94565b9050919050565b6000819050919050565b6114ed836114b8565b6115016114f9826114da565b84845461145c565b825550505050565b600090565b611516611509565b6115218184846114e4565b505050565b5b818110156115455761153a60008261150e565b600181019050611527565b5050565b601f82111561158a5761155b8161142a565b6115648461143f565b81016020851015611573578190505b61158761157f8561143f565b830182611526565b50505b505050565b600082821c905092915050565b60006115ad6000198460080261158f565b1980831691505092915050565b60006115c6838361159c565b9150826002028217905092915050565b6115df82610d04565b67ffffffffffffffff8111156115f8576115f7610ecb565b5b61160282546110d4565b61160d828285611549565b600060209050601f831160018114611640576000841561162e578287015190505b61163885826115ba565b8655506116a0565b601f19841661164e8661142a565b60005b8281101561167657848901518255600182019150602085019450602081019050611651565b86831015611693578489015161168f601f89168261159c565b8355505b6001600288020188555050505b505050505050565b7f4e487b7100000000000000000000000000000000000000000000000000000000600052601260045260246000fd5b60006116e282610d94565b91506116ed83610d94565b9250826116fd576116fc6116a8565b5b828204905092915050565b7f4e6f6d6520696e73657269746f206e6f6e2076616c69646f0000000000000000600082015250565b600061173e601883610d0f565b915061174982611708565b602082019050919050565b6000602082019050818103600083015261176d81611731565b905091905056fea264697066735822122019077112b32e369ca017125ab6595c88f8da9d87d0cc2873f0a821bf45e5e6d764736f6c63430008130033",
  "immutableReferences": {},
  "source": "// SPDX-License-Identifier: MIT\r\npragma solidity ^0.8.19;\r\n\r\ncontract Profile {\r\n    address payable creator;\r\n    uint256 deposito = 1 * (1 ether);\r\n    address myContract = address(this);\r\n\r\n    //creazione del giocatore\r\n    struct Player {\r\n        string username;\r\n        uint game; //totali partite giocate\r\n        uint maxWin; //massima vincita\r\n        uint totalCashFlow; //totali dei soldi giocati\r\n        uint cashInBank; //soldi depositati nel contratto\r\n        address addPlayer;\r\n        bool exist;\r\n    }\r\n\r\n    //struttura che tiene traccia delle info dei giocatori\r\n    mapping(address => Player) public addToPlayer;\r\n\r\n    //struttura che tiene traccia dell'esistenza dei giocatori\r\n    mapping(address => bool) public indirizzoEsiste;\r\n\r\n    event newPlayer(string, address, uint);\r\n    event existingPlayer(string, address);\r\n\r\n    constructor() payable {\r\n        \r\n        creator = payable(msg.sender);\r\n        addToPlayer[creator] = Player(\"_adil_2\", 0, 0, 0, 0, creator, true);\r\n\r\n    }\r\n\r\n    //Serve a depositare del denaro\r\n    function addEther() public payable returns (bool) {\r\n        require(msg.value > 0, \"non puoi trasferire una quantita pari a 0\");\r\n        addToPlayer[msg.sender].cashInBank += (msg.value) ;\r\n        return true;\r\n    }\r\n\r\n\r\n    //restituisce lo stato generale del contratto\r\n    function getStato() public view returns (uint, uint) {\r\n        return (address(this).balance / 1 ether, deposito);\r\n    }\r\n\r\n\r\n    //Permette di far prelevare un giocatore\r\n    function cashOut(uint x) public {\r\n        //controllo che il giocartore abbia delle finanze\r\n        require(addToPlayer[msg.sender].cashInBank > 0,\"non hai soldi da prelevare\");\r\n        //controllo che la quantit di denaro che si vuole prelevare sia minore o uguale a quanti soldi si dispone \r\n        require(addToPlayer[msg.sender].cashInBank >= x, \"non hai abbastanza soldi\");\r\n        //Controllo se ci sono abbastanza fondi per pagare\r\n        require(addToPlayer[msg.sender].cashInBank <= address(this).balance,\"non si sono abbastanza fonsi nel contratto per pagarti\");\r\n        address payable player = payable(msg.sender);\r\n        addToPlayer[msg.sender].cashInBank -= x;\r\n        player.transfer(x);\r\n    }\r\n\r\n\r\n    //ti da la possibilit di poter cambiare username \r\n    function setUsername(string memory _username) public returns (string memory) {\r\n        require(\r\n            addToPlayer[msg.sender].addPlayer == msg.sender,\r\n            \"L'indirizzo non esiste nel mapping o non combaciano\"\r\n        );\r\n        string memory nome = _username;\r\n        addToPlayer[msg.sender].username = nome;\r\n        return nome;\r\n    }\r\n\r\n    //restituisce le statistiche di un player\r\n    function getStatoUtente() public view returns (string memory, uint, uint, uint, uint, address,bool){\r\n        //verifichiamo che il chiamante sia il diretto interessato.\r\n        require(addToPlayer[msg.sender].addPlayer == msg.sender,\"L'indirizzo non esiste nel mapping o non combaciano\");\r\n\r\n        return (\r\n            addToPlayer[msg.sender].username,\r\n            addToPlayer[msg.sender].game,\r\n            addToPlayer[msg.sender].maxWin,\r\n            addToPlayer[msg.sender].totalCashFlow,\r\n            addToPlayer[msg.sender].cashInBank,\r\n            addToPlayer[msg.sender].addPlayer,\r\n            addToPlayer[msg.sender].exist\r\n        );\r\n    }\r\n\r\n    //restituisce  false se il giocatore gi esiste\r\n    //restituisce true se il giocatore  stato creato correttamente\r\n    function addPlayer(string memory _name) public payable returns (address) {\r\n        require(bytes(_name).length > 0, \"Nome inserito non valido\");\r\n\r\n        address p = msg.sender;\r\n\r\n        Player memory giocatore = Player(_name, 0, 0, 0, 0, p, true);\r\n\r\n        addToPlayer[p] = giocatore;\r\n        return p;\r\n    }\r\n}\r\n",
  "sourcePath": "/Users/mac_marco/BlockBet/contracts/Profile.sol",
  "compiler": {
    "name": "solc",
    "version": "0.8.19+commit.7dd6d404.Emscripten.clang"
  },
  "schemaVersion": "3.4.16",
  "updatedAt": "2024-02-13T09:12:42.696Z",
  "networkType": "ethereum",
  "devdoc": {
    "kind": "dev",
    "methods": {},
    "version": 1
  },
  "userdoc": {
    "kind": "user",
    "methods": {},
    "version": 1
  }
}