{
  "contractName": "Profile",
  "abi": [
    {
      "inputs": [],
      "stateMutability": "payable",
      "type": "constructor",
      "payable": true
    },
    {
      "anonymous": false,
      "inputs": [
        {
          "indexed": false,
          "internalType": "string",
          "name": "",
          "type": "string"
        },
        {
          "indexed": false,
          "internalType": "address",
          "name": "",
          "type": "address"
        }
      ],
      "name": "existingPlayer",
      "type": "event"
    },
    {
      "anonymous": false,
      "inputs": [
        {
          "indexed": false,
          "internalType": "string",
          "name": "",
          "type": "string"
        },
        {
          "indexed": false,
          "internalType": "address",
          "name": "",
          "type": "address"
        },
        {
          "indexed": false,
          "internalType": "uint256",
          "name": "",
          "type": "uint256"
        }
      ],
      "name": "newPlayer",
      "type": "event"
    },
    {
      "inputs": [
        {
          "internalType": "address",
          "name": "",
          "type": "address"
        }
      ],
      "name": "addToPlayer",
      "outputs": [
        {
          "internalType": "string",
          "name": "username",
          "type": "string"
        },
        {
          "internalType": "uint256",
          "name": "game",
          "type": "uint256"
        },
        {
          "internalType": "uint256",
          "name": "gameWin",
          "type": "uint256"
        },
        {
          "internalType": "uint256",
          "name": "maxWin",
          "type": "uint256"
        },
        {
          "internalType": "uint256",
          "name": "totalCashFlow",
          "type": "uint256"
        },
        {
          "internalType": "uint256",
          "name": "cashInBank",
          "type": "uint256"
        },
        {
          "internalType": "address",
          "name": "addPlayer",
          "type": "address"
        },
        {
          "internalType": "bool",
          "name": "exist",
          "type": "bool"
        }
      ],
      "stateMutability": "view",
      "type": "function",
      "constant": true
    },
    {
      "inputs": [
        {
          "internalType": "address",
          "name": "",
          "type": "address"
        }
      ],
      "name": "indirizzoEsiste",
      "outputs": [
        {
          "internalType": "bool",
          "name": "",
          "type": "bool"
        }
      ],
      "stateMutability": "view",
      "type": "function",
      "constant": true
    },
    {
      "inputs": [],
      "name": "addEther",
      "outputs": [
        {
          "internalType": "bool",
          "name": "",
          "type": "bool"
        }
      ],
      "stateMutability": "payable",
      "type": "function",
      "payable": true
    },
    {
      "inputs": [],
      "name": "getStato",
      "outputs": [
        {
          "internalType": "uint256",
          "name": "",
          "type": "uint256"
        },
        {
          "internalType": "uint256",
          "name": "",
          "type": "uint256"
        }
      ],
      "stateMutability": "view",
      "type": "function",
      "constant": true
    },
    {
      "inputs": [
        {
          "internalType": "uint256",
          "name": "x",
          "type": "uint256"
        }
      ],
      "name": "cashOut",
      "outputs": [],
      "stateMutability": "nonpayable",
      "type": "function"
    },
    {
      "inputs": [
        {
          "internalType": "string",
          "name": "_username",
          "type": "string"
        }
      ],
      "name": "setUsername",
      "outputs": [
        {
          "internalType": "string",
          "name": "",
          "type": "string"
        }
      ],
      "stateMutability": "nonpayable",
      "type": "function"
    },
    {
      "inputs": [],
      "name": "getStatoUtente",
      "outputs": [
        {
          "internalType": "string",
          "name": "",
          "type": "string"
        },
        {
          "internalType": "uint256",
          "name": "",
          "type": "uint256"
        },
        {
          "internalType": "uint256",
          "name": "",
          "type": "uint256"
        },
        {
          "internalType": "uint256",
          "name": "",
          "type": "uint256"
        },
        {
          "internalType": "uint256",
          "name": "",
          "type": "uint256"
        },
        {
          "internalType": "address",
          "name": "",
          "type": "address"
        },
        {
          "internalType": "uint256",
          "name": "",
          "type": "uint256"
        },
        {
          "internalType": "bool",
          "name": "",
          "type": "bool"
        }
      ],
      "stateMutability": "view",
      "type": "function",
      "constant": true
    },
    {
      "inputs": [
        {
          "internalType": "string",
          "name": "_name",
          "type": "string"
        }
      ],
      "name": "addPlayer",
      "outputs": [
        {
          "internalType": "address",
          "name": "",
          "type": "address"
        }
      ],
      "stateMutability": "payable",
      "type": "function",
      "payable": true
    }
  ],
  "bytecode": "0x6080604052670de0b6b3a764000060015530600260006101000a81548173ffffffffffffffffffffffffffffffffffffffff021916908373ffffffffffffffffffffffffffffffffffffffff160217905550336000806101000a81548173ffffffffffffffffffffffffffffffffffffffff021916908373ffffffffffffffffffffffffffffffffffffffff1602179055506040518061010001604052806040518060400160405280600781526020017f5f6164696c5f32000000000000000000000000000000000000000000000000008152508152602001600081526020016000815260200160008152602001600081526020016000815260200160008054906101000a900473ffffffffffffffffffffffffffffffffffffffff1673ffffffffffffffffffffffffffffffffffffffff16815260200160011515815250600360008060009054906101000a900473ffffffffffffffffffffffffffffffffffffffff1673ffffffffffffffffffffffffffffffffffffffff1673ffffffffffffffffffffffffffffffffffffffff1681526020019081526020016000206000820151816000019081620001b59190620004d2565b506020820151816001015560408201518160020155606082015181600301556080820151816004015560a0820151816005015560c08201518160060160006101000a81548173ffffffffffffffffffffffffffffffffffffffff021916908373ffffffffffffffffffffffffffffffffffffffff16021790555060e08201518160060160146101000a81548160ff021916908315150217905550905050620005b9565b600081519050919050565b7f4e487b7100000000000000000000000000000000000000000000000000000000600052604160045260246000fd5b7f4e487b7100000000000000000000000000000000000000000000000000000000600052602260045260246000fd5b60006002820490506001821680620002da57607f821691505b602082108103620002f057620002ef62000292565b5b50919050565b60008190508160005260206000209050919050565b60006020601f8301049050919050565b600082821b905092915050565b6000600883026200035a7fffffffffffffffffffffffffffffffffffffffffffffffffffffffffffffffff826200031b565b6200036686836200031b565b95508019841693508086168417925050509392505050565b6000819050919050565b6000819050919050565b6000620003b3620003ad620003a7846200037e565b62000388565b6200037e565b9050919050565b6000819050919050565b620003cf8362000392565b620003e7620003de82620003ba565b84845462000328565b825550505050565b600090565b620003fe620003ef565b6200040b818484620003c4565b505050565b5b81811015620004335762000427600082620003f4565b60018101905062000411565b5050565b601f82111562000482576200044c81620002f6565b62000457846200030b565b8101602085101562000467578190505b6200047f62000476856200030b565b83018262000410565b50505b505050565b600082821c905092915050565b6000620004a76000198460080262000487565b1980831691505092915050565b6000620004c2838362000494565b9150826002028217905092915050565b620004dd8262000258565b67ffffffffffffffff811115620004f957620004f862000263565b5b620005058254620002c1565b6200051282828562000437565b600060209050601f8311600181146200054a576000841562000535578287015190505b620005418582620004b4565b865550620005b1565b601f1984166200055a86620002f6565b60005b8281101562000584578489015182556001820191506020850194506020810190506200055d565b86831015620005a45784890151620005a0601f89168262000494565b8355505b6001600288020188555050505b505050505050565b6118a080620005c96000396000f3fe60806040526004361061007b5760003560e01c8063ed59313a1161004e578063ed59313a14610148578063f3bd38fa14610185578063f77e8b83146101b1578063fbb83ddb146101e15761007b565b806347478d52146100805780635c7b79f5146100c45780638894dd2b146100ed578063cf108a6b1461010b575b600080fd5b34801561008c57600080fd5b506100a760048036038101906100a29190610d39565b610213565b6040516100bb989796959493929190610e39565b60405180910390f35b3480156100d057600080fd5b506100eb60048036038101906100e69190610eea565b610310565b005b6100f5610548565b6040516101029190610f17565b60405180910390f35b34801561011757600080fd5b50610132600480360381019061012d9190610d39565b6105ec565b60405161013f9190610f17565b60405180910390f35b34801561015457600080fd5b5061016f600480360381019061016a9190611067565b61060c565b60405161017c91906110b0565b60405180910390f35b34801561019157600080fd5b5061019a61073c565b6040516101a89291906110d2565b60405180910390f35b6101cb60048036038101906101c69190611067565b61075e565b6040516101d891906110fb565b60405180910390f35b3480156101ed57600080fd5b506101f6610900565b60405161020a989796959493929190611116565b60405180910390f35b6003602052806000526040600020600091509050806000018054610236906111ca565b80601f0160208091040260200160405190810160405280929190818152602001828054610262906111ca565b80156102af5780601f10610284576101008083540402835291602001916102af565b820191906000526020600020905b81548152906001019060200180831161029257829003601f168201915b5050505050908060010154908060020154908060030154908060040154908060050154908060060160009054906101000a900473ffffffffffffffffffffffffffffffffffffffff16908060060160149054906101000a900460ff16905088565b6000600360003373ffffffffffffffffffffffffffffffffffffffff1673ffffffffffffffffffffffffffffffffffffffff1681526020019081526020016000206005015411610395576040517f08c379a000000000000000000000000000000000000000000000000000000000815260040161038c90611247565b60405180910390fd5b80600360003373ffffffffffffffffffffffffffffffffffffffff1673ffffffffffffffffffffffffffffffffffffffff16815260200190815260200160002060050154101561041a576040517f08c379a0000000000000000000000000000000000000000000000000000000008152600401610411906112b3565b60405180910390fd5b47600360003373ffffffffffffffffffffffffffffffffffffffff1673ffffffffffffffffffffffffffffffffffffffff16815260200190815260200160002060050154111561049f576040517f08c379a000000000000000000000000000000000000000000000000000000000815260040161049690611345565b60405180910390fd5b600033905081600360003373ffffffffffffffffffffffffffffffffffffffff1673ffffffffffffffffffffffffffffffffffffffff16815260200190815260200160002060050160008282546104f69190611394565b925050819055508073ffffffffffffffffffffffffffffffffffffffff166108fc839081150290604051600060405180830381858888f19350505050158015610543573d6000803e3d6000fd5b505050565b600080341161058c576040517f08c379a00000000000000000000000000000000000000000000000000000000081526004016105839061143a565b60405180910390fd5b34600360003373ffffffffffffffffffffffffffffffffffffffff1673ffffffffffffffffffffffffffffffffffffffff16815260200190815260200160002060050160008282546105de919061145a565b925050819055506001905090565b60046020528060005260406000206000915054906101000a900460ff1681565b60603373ffffffffffffffffffffffffffffffffffffffff16600360003373ffffffffffffffffffffffffffffffffffffffff1673ffffffffffffffffffffffffffffffffffffffff16815260200190815260200160002060060160009054906101000a900473ffffffffffffffffffffffffffffffffffffffff1673ffffffffffffffffffffffffffffffffffffffff16146106de576040517f08c379a00000000000000000000000000000000000000000000000000000000081526004016106d590611500565b60405180910390fd5b600082905080600360003373ffffffffffffffffffffffffffffffffffffffff1673ffffffffffffffffffffffffffffffffffffffff168152602001908152602001600020600001908161073291906116cc565b5080915050919050565b600080670de0b6b3a76400004761075391906117cd565b600154915091509091565b6000808251116107a3576040517f08c379a000000000000000000000000000000000000000000000000000000000815260040161079a9061184a565b60405180910390fd5b6000339050600060405180610100016040528085815260200160008152602001600081526020016000815260200160008152602001600081526020018373ffffffffffffffffffffffffffffffffffffffff16815260200160011515815250905080600360008473ffffffffffffffffffffffffffffffffffffffff1673ffffffffffffffffffffffffffffffffffffffff168152602001908152602001600020600082015181600001908161085991906116cc565b506020820151816001015560408201518160020155606082015181600301556080820151816004015560a0820151816005015560c08201518160060160006101000a81548173ffffffffffffffffffffffffffffffffffffffff021916908373ffffffffffffffffffffffffffffffffffffffff16021790555060e08201518160060160146101000a81548160ff0219169083151502179055509050508192505050919050565b606060008060008060008060003373ffffffffffffffffffffffffffffffffffffffff16600360003373ffffffffffffffffffffffffffffffffffffffff1673ffffffffffffffffffffffffffffffffffffffff16815260200190815260200160002060060160009054906101000a900473ffffffffffffffffffffffffffffffffffffffff1673ffffffffffffffffffffffffffffffffffffffff16146109dd576040517f08c379a00000000000000000000000000000000000000000000000000000000081526004016109d490611500565b60405180910390fd5b600360003373ffffffffffffffffffffffffffffffffffffffff1673ffffffffffffffffffffffffffffffffffffffff168152602001908152602001600020600001600360003373ffffffffffffffffffffffffffffffffffffffff1673ffffffffffffffffffffffffffffffffffffffff16815260200190815260200160002060010154600360003373ffffffffffffffffffffffffffffffffffffffff1673ffffffffffffffffffffffffffffffffffffffff16815260200190815260200160002060030154600360003373ffffffffffffffffffffffffffffffffffffffff1673ffffffffffffffffffffffffffffffffffffffff16815260200190815260200160002060040154600360003373ffffffffffffffffffffffffffffffffffffffff1673ffffffffffffffffffffffffffffffffffffffff16815260200190815260200160002060050154600360003373ffffffffffffffffffffffffffffffffffffffff1673ffffffffffffffffffffffffffffffffffffffff16815260200190815260200160002060060160009054906101000a900473ffffffffffffffffffffffffffffffffffffffff16600360003373ffffffffffffffffffffffffffffffffffffffff1673ffffffffffffffffffffffffffffffffffffffff16815260200190815260200160002060020154600360003373ffffffffffffffffffffffffffffffffffffffff1673ffffffffffffffffffffffffffffffffffffffff16815260200190815260200160002060060160149054906101000a900460ff16878054610c2d906111ca565b80601f0160208091040260200160405190810160405280929190818152602001828054610c59906111ca565b8015610ca65780601f10610c7b57610100808354040283529160200191610ca6565b820191906000526020600020905b815481529060010190602001808311610c8957829003601f168201915b50505050509750975097509750975097509750975097509091929394959697565b6000604051905090565b600080fd5b600080fd5b600073ffffffffffffffffffffffffffffffffffffffff82169050919050565b6000610d0682610cdb565b9050919050565b610d1681610cfb565b8114610d2157600080fd5b50565b600081359050610d3381610d0d565b92915050565b600060208284031215610d4f57610d4e610cd1565b5b6000610d5d84828501610d24565b91505092915050565b600081519050919050565b600082825260208201905092915050565b60005b83811015610da0578082015181840152602081019050610d85565b60008484015250505050565b6000601f19601f8301169050919050565b6000610dc882610d66565b610dd28185610d71565b9350610de2818560208601610d82565b610deb81610dac565b840191505092915050565b6000819050919050565b610e0981610df6565b82525050565b610e1881610cfb565b82525050565b60008115159050919050565b610e3381610e1e565b82525050565b6000610100820190508181036000830152610e54818b610dbd565b9050610e63602083018a610e00565b610e706040830189610e00565b610e7d6060830188610e00565b610e8a6080830187610e00565b610e9760a0830186610e00565b610ea460c0830185610e0f565b610eb160e0830184610e2a565b9998505050505050505050565b610ec781610df6565b8114610ed257600080fd5b50565b600081359050610ee481610ebe565b92915050565b600060208284031215610f0057610eff610cd1565b5b6000610f0e84828501610ed5565b91505092915050565b6000602082019050610f2c6000830184610e2a565b92915050565b600080fd5b600080fd5b7f4e487b7100000000000000000000000000000000000000000000000000000000600052604160045260246000fd5b610f7482610dac565b810181811067ffffffffffffffff82111715610f9357610f92610f3c565b5b80604052505050565b6000610fa6610cc7565b9050610fb28282610f6b565b919050565b600067ffffffffffffffff821115610fd257610fd1610f3c565b5b610fdb82610dac565b9050602081019050919050565b82818337600083830152505050565b600061100a61100584610fb7565b610f9c565b90508281526020810184848401111561102657611025610f37565b5b611031848285610fe8565b509392505050565b600082601f83011261104e5761104d610f32565b5b813561105e848260208601610ff7565b91505092915050565b60006020828403121561107d5761107c610cd1565b5b600082013567ffffffffffffffff81111561109b5761109a610cd6565b5b6110a784828501611039565b91505092915050565b600060208201905081810360008301526110ca8184610dbd565b905092915050565b60006040820190506110e76000830185610e00565b6110f46020830184610e00565b9392505050565b60006020820190506111106000830184610e0f565b92915050565b6000610100820190508181036000830152611131818b610dbd565b9050611140602083018a610e00565b61114d6040830189610e00565b61115a6060830188610e00565b6111676080830187610e00565b61117460a0830186610e0f565b61118160c0830185610e00565b61118e60e0830184610e2a565b9998505050505050505050565b7f4e487b7100000000000000000000000000000000000000000000000000000000600052602260045260246000fd5b600060028204905060018216806111e257607f821691505b6020821081036111f5576111f461119b565b5b50919050565b7f6e6f6e2068616920736f6c6469206461207072656c6576617265000000000000600082015250565b6000611231601a83610d71565b915061123c826111fb565b602082019050919050565b6000602082019050818103600083015261126081611224565b9050919050565b7f6e6f6e2068616920616262617374616e7a6120736f6c64690000000000000000600082015250565b600061129d601883610d71565b91506112a882611267565b602082019050919050565b600060208201905081810360008301526112cc81611290565b9050919050565b7f6e6f6e20736920736f6e6f20616262617374616e7a6120666f6e7369206e656c60008201527f20636f6e74726174746f20706572207061676172746900000000000000000000602082015250565b600061132f603683610d71565b915061133a826112d3565b604082019050919050565b6000602082019050818103600083015261135e81611322565b9050919050565b7f4e487b7100000000000000000000000000000000000000000000000000000000600052601160045260246000fd5b600061139f82610df6565b91506113aa83610df6565b92508282039050818111156113c2576113c1611365565b5b92915050565b7f6e6f6e2070756f69207472617366657269726520756e61207175616e7469746160008201527f2070617269206120300000000000000000000000000000000000000000000000602082015250565b6000611424602983610d71565b915061142f826113c8565b604082019050919050565b6000602082019050818103600083015261145381611417565b9050919050565b600061146582610df6565b915061147083610df6565b925082820190508082111561148857611487611365565b5b92915050565b7f4c27696e646972697a7a6f206e6f6e20657369737465206e656c206d6170706960008201527f6e67206f206e6f6e20636f6d62616369616e6f00000000000000000000000000602082015250565b60006114ea603383610d71565b91506114f58261148e565b604082019050919050565b60006020820190508181036000830152611519816114dd565b9050919050565b60008190508160005260206000209050919050565b60006020601f8301049050919050565b600082821b905092915050565b6000600883026115827fffffffffffffffffffffffffffffffffffffffffffffffffffffffffffffffff82611545565b61158c8683611545565b95508019841693508086168417925050509392505050565b6000819050919050565b60006115c96115c46115bf84610df6565b6115a4565b610df6565b9050919050565b6000819050919050565b6115e3836115ae565b6115f76115ef826115d0565b848454611552565b825550505050565b600090565b61160c6115ff565b6116178184846115da565b505050565b5b8181101561163b57611630600082611604565b60018101905061161d565b5050565b601f8211156116805761165181611520565b61165a84611535565b81016020851015611669578190505b61167d61167585611535565b83018261161c565b50505b505050565b600082821c905092915050565b60006116a360001984600802611685565b1980831691505092915050565b60006116bc8383611692565b9150826002028217905092915050565b6116d582610d66565b67ffffffffffffffff8111156116ee576116ed610f3c565b5b6116f882546111ca565b61170382828561163f565b600060209050601f8311600181146117365760008415611724578287015190505b61172e85826116b0565b865550611796565b601f19841661174486611520565b60005b8281101561176c57848901518255600182019150602085019450602081019050611747565b868310156117895784890151611785601f891682611692565b8355505b6001600288020188555050505b505050505050565b7f4e487b7100000000000000000000000000000000000000000000000000000000600052601260045260246000fd5b60006117d882610df6565b91506117e383610df6565b9250826117f3576117f261179e565b5b828204905092915050565b7f4e6f6d6520696e73657269746f206e6f6e2076616c69646f0000000000000000600082015250565b6000611834601883610d71565b915061183f826117fe565b602082019050919050565b6000602082019050818103600083015261186381611827565b905091905056fea2646970667358221220e40ad0f525c109e9c33ebb2f9df2d0dd2af4517df2b64390cb00afd92d41323064736f6c63430008130033",
  "immutableReferences": {},
  "source": "// SPDX-License-Identifier: MIT\r\npragma solidity ^0.8.19;\r\n\r\ncontract Profile {\r\n    address payable creator;\r\n    uint256 deposito = 1 * (1 ether);\r\n    address myContract = address(this);\r\n\r\n    //creazione del giocatore\r\n    struct Player {\r\n        string username;\r\n        uint game; //totali partite giocate\r\n        uint gameWin; //partite vinte\r\n        uint maxWin; //massima vincita\r\n        uint totalCashFlow; //totali dei soldi giocati\r\n        uint cashInBank; //soldi depositati nel contratto\r\n        address addPlayer;\r\n        bool exist;\r\n    }\r\n\r\n    //struttura che tiene traccia delle info dei giocatori\r\n    mapping(address => Player) public addToPlayer;\r\n\r\n    //struttura che tiene traccia dell'esistenza dei giocatori\r\n    mapping(address => bool) public indirizzoEsiste;\r\n\r\n    event newPlayer(string, address, uint);\r\n    event existingPlayer(string, address);\r\n\r\n    constructor() payable {\r\n        \r\n        creator = payable(msg.sender);\r\n        addToPlayer[creator] = Player(\"_adil_2\", 0, 0, 0, 0, 0, creator, true);\r\n\r\n    }\r\n\r\n    //Serve a depositare del denaro\r\n    function addEther() public payable returns (bool) {\r\n        require(msg.value > 0, \"non puoi trasferire una quantita pari a 0\");\r\n        addToPlayer[msg.sender].cashInBank += (msg.value) ;\r\n        return true;\r\n    }\r\n\r\n\r\n    //restituisce lo stato generale del contratto\r\n    function getStato() public view returns (uint, uint) {\r\n        return (address(this).balance / 1 ether, deposito);\r\n    }\r\n\r\n\r\n    //Permette di far prelevare un giocatore\r\n    function cashOut(uint x) public {\r\n        //controllo che il giocartore abbia delle finanze\r\n        require(addToPlayer[msg.sender].cashInBank > 0,\"non hai soldi da prelevare\");\r\n        //controllo che la quantit di denaro che si vuole prelevare sia minore o uguale a quanti soldi si dispone \r\n        require(addToPlayer[msg.sender].cashInBank >= x, \"non hai abbastanza soldi\");\r\n        //Controllo se ci sono abbastanza fondi per pagare\r\n        require(addToPlayer[msg.sender].cashInBank <= address(this).balance,\"non si sono abbastanza fonsi nel contratto per pagarti\");\r\n        address payable player = payable(msg.sender);\r\n        addToPlayer[msg.sender].cashInBank -= x;\r\n        player.transfer(x);\r\n    }\r\n\r\n\r\n    //ti da la possibilit di poter cambiare username \r\n    function setUsername(string memory _username) public returns (string memory) {\r\n        require(\r\n            addToPlayer[msg.sender].addPlayer == msg.sender,\r\n            \"L'indirizzo non esiste nel mapping o non combaciano\"\r\n        );\r\n        string memory nome = _username;\r\n        addToPlayer[msg.sender].username = nome;\r\n        return nome;\r\n    }\r\n\r\n    //restituisce le statistiche di un player\r\n    function getStatoUtente() public view returns (string memory, uint, uint, uint, uint, address,uint, bool){\r\n        //verifichiamo che il chiamante sia il diretto interessato.\r\n        require(addToPlayer[msg.sender].addPlayer == msg.sender,\"L'indirizzo non esiste nel mapping o non combaciano\");\r\n\r\n        return (\r\n            addToPlayer[msg.sender].username,\r\n            addToPlayer[msg.sender].game,\r\n            addToPlayer[msg.sender].maxWin,\r\n            addToPlayer[msg.sender].totalCashFlow,\r\n            addToPlayer[msg.sender].cashInBank,\r\n            addToPlayer[msg.sender].addPlayer,\r\n            addToPlayer[msg.sender].gameWin,\r\n            addToPlayer[msg.sender].exist\r\n        );\r\n    }\r\n\r\n    //restituisce  false se il giocatore gi esiste\r\n    //restituisce true se il giocatore  stato creato correttamente\r\n    function addPlayer(string memory _name) public payable returns (address) {\r\n        require(bytes(_name).length > 0, \"Nome inserito non valido\");\r\n\r\n        address p = msg.sender;\r\n\r\n        Player memory giocatore = Player(_name, 0, 0, 0, 0, 0, p, true);\r\n\r\n        addToPlayer[p] = giocatore;\r\n        return p;\r\n    }\r\n}\r\n",
  "sourcePath": "/Users/mac_marco/BlockBet/contracts/Profile.sol",
  "compiler": {
    "name": "solc",
    "version": "0.8.19+commit.7dd6d404.Emscripten.clang"
  },
  "schemaVersion": "3.4.16",
  "updatedAt": "2024-02-15T14:31:39.775Z",
  "networkType": "ethereum",
  "devdoc": {
    "kind": "dev",
    "methods": {},
    "version": 1
  },
  "userdoc": {
    "kind": "user",
    "methods": {},
    "version": 1
  }
}