{
  "contractName": "Roulette",
  "abi": [
    {
      "inputs": [],
      "stateMutability": "payable",
      "type": "constructor",
      "payable": true
    },
    {
      "anonymous": false,
      "inputs": [
        {
          "indexed": false,
          "internalType": "uint256",
          "name": "number",
          "type": "uint256"
        }
      ],
      "name": "RandomNumber",
      "type": "event"
    },
    {
      "anonymous": false,
      "inputs": [
        {
          "indexed": false,
          "internalType": "string",
          "name": "",
          "type": "string"
        },
        {
          "indexed": false,
          "internalType": "address",
          "name": "",
          "type": "address"
        }
      ],
      "name": "existingPlayer",
      "type": "event"
    },
    {
      "anonymous": false,
      "inputs": [
        {
          "indexed": false,
          "internalType": "string",
          "name": "",
          "type": "string"
        },
        {
          "indexed": false,
          "internalType": "address",
          "name": "",
          "type": "address"
        },
        {
          "indexed": false,
          "internalType": "uint256",
          "name": "",
          "type": "uint256"
        }
      ],
      "name": "newPlayer",
      "type": "event"
    },
    {
      "inputs": [],
      "name": "addEther",
      "outputs": [
        {
          "internalType": "bool",
          "name": "",
          "type": "bool"
        }
      ],
      "stateMutability": "payable",
      "type": "function",
      "payable": true
    },
    {
      "inputs": [
        {
          "internalType": "string",
          "name": "_name",
          "type": "string"
        }
      ],
      "name": "addPlayer",
      "outputs": [
        {
          "internalType": "address",
          "name": "",
          "type": "address"
        }
      ],
      "stateMutability": "payable",
      "type": "function",
      "payable": true
    },
    {
      "inputs": [
        {
          "internalType": "address",
          "name": "",
          "type": "address"
        }
      ],
      "name": "addToPlayer",
      "outputs": [
        {
          "internalType": "string",
          "name": "username",
          "type": "string"
        },
        {
          "internalType": "uint256",
          "name": "game",
          "type": "uint256"
        },
        {
          "internalType": "uint256",
          "name": "maxWin",
          "type": "uint256"
        },
        {
          "internalType": "uint256",
          "name": "totalCashFlow",
          "type": "uint256"
        },
        {
          "internalType": "uint256",
          "name": "cashInBank",
          "type": "uint256"
        },
        {
          "internalType": "address",
          "name": "addPlayer",
          "type": "address"
        },
        {
          "internalType": "bool",
          "name": "exist",
          "type": "bool"
        }
      ],
      "stateMutability": "view",
      "type": "function",
      "constant": true
    },
    {
      "inputs": [
        {
          "internalType": "uint256",
          "name": "",
          "type": "uint256"
        }
      ],
      "name": "bets",
      "outputs": [
        {
          "internalType": "address",
          "name": "player",
          "type": "address"
        },
        {
          "internalType": "uint8",
          "name": "betType",
          "type": "uint8"
        },
        {
          "internalType": "uint8",
          "name": "number",
          "type": "uint8"
        },
        {
          "internalType": "uint256",
          "name": "amount",
          "type": "uint256"
        }
      ],
      "stateMutability": "view",
      "type": "function",
      "constant": true
    },
    {
      "inputs": [
        {
          "internalType": "uint256",
          "name": "x",
          "type": "uint256"
        }
      ],
      "name": "cashOut",
      "outputs": [],
      "stateMutability": "nonpayable",
      "type": "function"
    },
    {
      "inputs": [],
      "name": "getStato",
      "outputs": [
        {
          "internalType": "uint256",
          "name": "",
          "type": "uint256"
        },
        {
          "internalType": "uint256",
          "name": "",
          "type": "uint256"
        }
      ],
      "stateMutability": "view",
      "type": "function",
      "constant": true
    },
    {
      "inputs": [],
      "name": "getStatoUtente",
      "outputs": [
        {
          "internalType": "string",
          "name": "",
          "type": "string"
        },
        {
          "internalType": "uint256",
          "name": "",
          "type": "uint256"
        },
        {
          "internalType": "uint256",
          "name": "",
          "type": "uint256"
        },
        {
          "internalType": "uint256",
          "name": "",
          "type": "uint256"
        },
        {
          "internalType": "uint256",
          "name": "",
          "type": "uint256"
        },
        {
          "internalType": "address",
          "name": "",
          "type": "address"
        },
        {
          "internalType": "bool",
          "name": "",
          "type": "bool"
        }
      ],
      "stateMutability": "view",
      "type": "function",
      "constant": true
    },
    {
      "inputs": [
        {
          "internalType": "address",
          "name": "",
          "type": "address"
        }
      ],
      "name": "indirizzoEsiste",
      "outputs": [
        {
          "internalType": "bool",
          "name": "",
          "type": "bool"
        }
      ],
      "stateMutability": "view",
      "type": "function",
      "constant": true
    },
    {
      "inputs": [
        {
          "internalType": "string",
          "name": "_username",
          "type": "string"
        }
      ],
      "name": "setUsername",
      "outputs": [
        {
          "internalType": "string",
          "name": "",
          "type": "string"
        }
      ],
      "stateMutability": "nonpayable",
      "type": "function"
    },
    {
      "inputs": [],
      "name": "getStatus",
      "outputs": [
        {
          "internalType": "uint256",
          "name": "",
          "type": "uint256"
        },
        {
          "internalType": "uint256",
          "name": "",
          "type": "uint256"
        },
        {
          "internalType": "uint256",
          "name": "",
          "type": "uint256"
        },
        {
          "internalType": "uint256",
          "name": "",
          "type": "uint256"
        }
      ],
      "stateMutability": "view",
      "type": "function",
      "constant": true
    },
    {
      "inputs": [
        {
          "internalType": "uint8",
          "name": "number",
          "type": "uint8"
        },
        {
          "internalType": "uint8",
          "name": "betType",
          "type": "uint8"
        }
      ],
      "name": "bet",
      "outputs": [],
      "stateMutability": "payable",
      "type": "function",
      "payable": true
    },
    {
      "inputs": [],
      "name": "getBet",
      "outputs": [
        {
          "internalType": "uint256",
          "name": "",
          "type": "uint256"
        },
        {
          "internalType": "uint8",
          "name": "",
          "type": "uint8"
        },
        {
          "internalType": "uint8",
          "name": "",
          "type": "uint8"
        },
        {
          "internalType": "uint256",
          "name": "",
          "type": "uint256"
        },
        {
          "internalType": "uint256",
          "name": "",
          "type": "uint256"
        }
      ],
      "stateMutability": "view",
      "type": "function",
      "constant": true
    },
    {
      "inputs": [],
      "name": "getNumber",
      "outputs": [
        {
          "internalType": "uint256",
          "name": "",
          "type": "uint256"
        }
      ],
      "stateMutability": "view",
      "type": "function",
      "constant": true
    },
    {
      "inputs": [],
      "name": "spinWheel",
      "outputs": [
        {
          "internalType": "uint256",
          "name": "",
          "type": "uint256"
        }
      ],
      "stateMutability": "nonpayable",
      "type": "function"
    }
  ],
  "bytecode": "0x6080604052670de0b6b3a764000060015530600260006101000a81548173ffffffffffffffffffffffffffffffffffffffff021916908373ffffffffffffffffffffffffffffffffffffffff160217905550336000806101000a81548173ffffffffffffffffffffffffffffffffffffffff021916908373ffffffffffffffffffffffffffffffffffffffff1602179055506040518060e001604052806040518060400160405280600781526020017f5f6164696c5f320000000000000000000000000000000000000000000000000081525081526020016000815260200160008152602001600081526020016000815260200160008054906101000a900473ffffffffffffffffffffffffffffffffffffffff1673ffffffffffffffffffffffffffffffffffffffff16815260200160011515815250600360008060009054906101000a900473ffffffffffffffffffffffffffffffffffffffff1673ffffffffffffffffffffffffffffffffffffffff1673ffffffffffffffffffffffffffffffffffffffff1681526020019081526020016000206000820151816000019081620001ad919062000669565b506020820151816001015560408201518160020155606082015181600301556080820151816004015560a08201518160050160006101000a81548173ffffffffffffffffffffffffffffffffffffffff021916908373ffffffffffffffffffffffffffffffffffffffff16021790555060c08201518160050160146101000a81548160ff0219169083151502179055509050506000600681905550426007819055506040518060c00160405280600260ff168152602001600360ff168152602001600360ff168152602001600260ff168152602001600260ff168152602001602460ff16815250600a906006620002a692919062000322565b506040518060c00160405280600160ff168152602001600260ff168152602001600260ff168152602001600160ff168152602001600160ff168152602001602460ff16815250600b906006620002fe92919062000322565b50662386f26fc10000600581905550671bc16d674ec8000060088190555062000750565b82805482825590600052602060002090601f01602090048101928215620003bd5791602002820160005b838211156200038c57835183826101000a81548160ff021916908360ff16021790555092602001926001016020816000010492830192600103026200034c565b8015620003bb5782816101000a81549060ff02191690556001016020816000010492830192600103026200038c565b505b509050620003cc9190620003d0565b5090565b5b80821115620003eb576000816000905550600101620003d1565b5090565b600081519050919050565b7f4e487b7100000000000000000000000000000000000000000000000000000000600052604160045260246000fd5b7f4e487b7100000000000000000000000000000000000000000000000000000000600052602260045260246000fd5b600060028204905060018216806200047157607f821691505b60208210810362000487576200048662000429565b5b50919050565b60008190508160005260206000209050919050565b60006020601f8301049050919050565b600082821b905092915050565b600060088302620004f17fffffffffffffffffffffffffffffffffffffffffffffffffffffffffffffffff82620004b2565b620004fd8683620004b2565b95508019841693508086168417925050509392505050565b6000819050919050565b6000819050919050565b60006200054a620005446200053e8462000515565b6200051f565b62000515565b9050919050565b6000819050919050565b620005668362000529565b6200057e620005758262000551565b848454620004bf565b825550505050565b600090565b6200059562000586565b620005a28184846200055b565b505050565b5b81811015620005ca57620005be6000826200058b565b600181019050620005a8565b5050565b601f8211156200061957620005e3816200048d565b620005ee84620004a2565b81016020851015620005fe578190505b620006166200060d85620004a2565b830182620005a7565b50505b505050565b600082821c905092915050565b60006200063e600019846008026200061e565b1980831691505092915050565b60006200065983836200062b565b9150826002028217905092915050565b6200067482620003ef565b67ffffffffffffffff81111562000690576200068f620003fa565b5b6200069c825462000458565b620006a9828285620005ce565b600060209050601f831160018114620006e15760008415620006cc578287015190505b620006d885826200064b565b86555062000748565b601f198416620006f1866200048d565b60005b828110156200071b57848901518255600182019150602085019450602081019050620006f4565b868310156200073b578489015162000737601f8916826200062b565b8355505b6001600288020188555050505b505050505050565b612b1780620007606000396000f3fe6080604052600436106100dd5760003560e01c8063cf108a6b1161007f578063f2c9ecd811610059578063f2c9ecd8146102ca578063f3bd38fa146102f5578063f77e8b8314610321578063fbb83ddb14610351576100dd565b8063cf108a6b14610234578063d773f46e14610271578063ed59313a1461028d576100dd565b806347478d52116100bb57806347478d521461017c5780634e69d560146101bf5780635c7b79f5146101ed5780638894dd2b14610216576100dd565b806315ecef92146100e257806320835e8c1461010d57806322af00fa1461013c575b600080fd5b3480156100ee57600080fd5b506100f7610382565b6040516101049190611a25565b60405180910390f35b34801561011957600080fd5b50610122610b3f565b604051610133959493929190611a5c565b60405180910390f35b34801561014857600080fd5b50610163600480360381019061015e9190611aef565b610c4b565b6040516101739493929190611b5d565b60405180910390f35b34801561018857600080fd5b506101a3600480360381019061019e9190611bce565b610cc5565b6040516101b69796959493929190611ca6565b60405180910390f35b3480156101cb57600080fd5b506101d4610dbc565b6040516101e49493929190611d1c565b60405180910390f35b3480156101f957600080fd5b50610214600480360381019061020f9190611aef565b610e2c565b005b61021e611064565b60405161022b9190611d61565b60405180910390f35b34801561024057600080fd5b5061025b60048036038101906102569190611bce565b611108565b6040516102689190611d61565b60405180910390f35b61028b60048036038101906102869190611da8565b611128565b005b34801561029957600080fd5b506102b460048036038101906102af9190611f1d565b61130f565b6040516102c19190611f66565b60405180910390f35b3480156102d657600080fd5b506102df61143f565b6040516102ec9190611a25565b60405180910390f35b34801561030157600080fd5b5061030a611449565b604051610318929190611f88565b60405180910390f35b61033b60048036038101906103369190611f1d565b61146b565b6040516103489190611fb1565b60405180910390f35b34801561035d57600080fd5b506103666115fb565b6040516103799796959493929190611ca6565b60405180910390f35b600080600d80549050116103cb576040517f08c379a00000000000000000000000000000000000000000000000000000000081526004016103c290612018565b60405180910390fd5b600754421161040f576040517f08c379a0000000000000000000000000000000000000000000000000000000008152600401610406906120aa565b60405180910390fd5b426007819055506000449050600060014361042a91906120f9565b4090506000600d6001600d8054905061044391906120f9565b815481106104545761045361212d565b5b90600052602060002090600202016040518060800160405290816000820160009054906101000a900473ffffffffffffffffffffffffffffffffffffffff1673ffffffffffffffffffffffffffffffffffffffff1673ffffffffffffffffffffffffffffffffffffffff1681526020016000820160149054906101000a900460ff1660ff1660ff1681526020016000820160159054906101000a900460ff1660ff1660ff16815260200160018201548152505090506000602542858585602001518660000151876040015160405160200161053496959493929190612226565b6040516020818303038152906040528051906020012060001c61055791906122c5565b905060005b600d80549050811015610ae757600080600d83815481106105805761057f61212d565b5b90600052602060002090600202016040518060800160405290816000820160009054906101000a900473ffffffffffffffffffffffffffffffffffffffff1673ffffffffffffffffffffffffffffffffffffffff1673ffffffffffffffffffffffffffffffffffffffff1681526020016000820160149054906101000a900460ff1660ff1660ff1681526020016000820160159054906101000a900460ff1660ff1660ff168152602001600182015481525050905060008403610662576005816020015160ff1614801561065b57506000816040015160ff16145b91506108bf565b6005816020015160ff16036106825783816040015160ff161491506108be565b6004816020015160ff16036106da576000816040015160ff16036106b35760006002856106af91906122c5565b1491505b6001816040015160ff16036106d55760016002856106d191906122c5565b1491505b6108bd565b6003816020015160ff160361071c576000816040015160ff160361070057601284111591505b6001816040015160ff160361071757601384101591505b6108bc565b6002816020015160ff1603610780576000816040015160ff160361074257600c84111591505b6001816040015160ff160361076557600c84118015610762575060188411155b91505b6002816040015160ff160361077b576018841191505b6108bb565b6001816020015160ff16036107fa576000816040015160ff16036107b15760016003856107ad91906122c5565b1491505b6001816040015160ff16036107d35760026003856107cf91906122c5565b1491505b6002816040015160ff16036107f55760006003856107f191906122c5565b1491505b6108ba565b6000816020015160ff16036108b9576000816040015160ff160361086a57600a841115806108365750601484101580156108355750601c8411155b5b1561085257600060028561084a91906122c5565b149150610865565b600160028561086191906122c5565b1491505b6108b8565b600a841115806108885750601484101580156108875750601c8411155b5b156108a457600160028561089c91906122c5565b1491506108b7565b60006002856108b391906122c5565b1491505b5b5b5b5b5b5b5b5b8115610a7357600a816020015160ff16815481106108e0576108df61212d565b5b90600052602060002090602091828204019190069054906101000a900460ff1660ff1660055461091091906122f6565b60096000836000015173ffffffffffffffffffffffffffffffffffffffff1673ffffffffffffffffffffffffffffffffffffffff16815260200190815260200160002060008282546109629190612338565b92505081905550600160036000836000015173ffffffffffffffffffffffffffffffffffffffff1673ffffffffffffffffffffffffffffffffffffffff16815260200190815260200160002060010160008282546109c09190612338565b92505081905550600a816020015160ff16815481106109e2576109e161212d565b5b90600052602060002090602091828204019190069054906101000a900460ff1660ff16600554610a1291906122f6565b60036000836000015173ffffffffffffffffffffffffffffffffffffffff1673ffffffffffffffffffffffffffffffffffffffff1681526020019081526020016000206004016000828254610a679190612338565b92505081905550610ad2565b600160036000836000015173ffffffffffffffffffffffffffffffffffffffff1673ffffffffffffffffffffffffffffffffffffffff1681526020019081526020016000206001016000828254610aca9190612338565b925050819055505b50508080610adf9061236c565b91505061055c565b50600d6000610af6919061197a565b60006006819055507fec6cdc8e735e4069f6e89062582f3e5532a8e71373e7ef2962fa916cf2af21f281604051610b2d9190611a25565b60405180910390a18094505050505090565b600080600080600080600d8054905090506000600d600183610b6191906120f9565b81548110610b7257610b7161212d565b5b90600052602060002090600202016040518060800160405290816000820160009054906101000a900473ffffffffffffffffffffffffffffffffffffffff1673ffffffffffffffffffffffffffffffffffffffff1673ffffffffffffffffffffffffffffffffffffffff1681526020016000820160149054906101000a900460ff1660ff1660ff1681526020016000820160159054906101000a900460ff1660ff1660ff168152602001600182015481525050905080606001518160200151826040015184479650965096509650965050509091929394565b600d8181548110610c5b57600080fd5b90600052602060002090600202016000915090508060000160009054906101000a900473ffffffffffffffffffffffffffffffffffffffff16908060000160149054906101000a900460ff16908060000160159054906101000a900460ff16908060010154905084565b6003602052806000526040600020600091509050806000018054610ce8906123e3565b80601f0160208091040260200160405190810160405280929190818152602001828054610d14906123e3565b8015610d615780601f10610d3657610100808354040283529160200191610d61565b820191906000526020600020905b815481529060010190602001808311610d4457829003601f168201915b5050505050908060010154908060020154908060030154908060040154908060050160009054906101000a900473ffffffffffffffffffffffffffffffffffffffff16908060050160149054906101000a900460ff16905087565b600080600080600d80549050600554600d80549050610ddb91906122f6565b600754600960003373ffffffffffffffffffffffffffffffffffffffff1673ffffffffffffffffffffffffffffffffffffffff16815260200190815260200160002054935093509350935090919293565b6000600360003373ffffffffffffffffffffffffffffffffffffffff1673ffffffffffffffffffffffffffffffffffffffff1681526020019081526020016000206004015411610eb1576040517f08c379a0000000000000000000000000000000000000000000000000000000008152600401610ea890612460565b60405180910390fd5b80600360003373ffffffffffffffffffffffffffffffffffffffff1673ffffffffffffffffffffffffffffffffffffffff168152602001908152602001600020600401541015610f36576040517f08c379a0000000000000000000000000000000000000000000000000000000008152600401610f2d906124cc565b60405180910390fd5b47600360003373ffffffffffffffffffffffffffffffffffffffff1673ffffffffffffffffffffffffffffffffffffffff168152602001908152602001600020600401541115610fbb576040517f08c379a0000000000000000000000000000000000000000000000000000000008152600401610fb29061255e565b60405180910390fd5b600033905081600360003373ffffffffffffffffffffffffffffffffffffffff1673ffffffffffffffffffffffffffffffffffffffff168152602001908152602001600020600401600082825461101291906120f9565b925050819055508073ffffffffffffffffffffffffffffffffffffffff166108fc839081150290604051600060405180830381858888f1935050505015801561105f573d6000803e3d6000fd5b505050565b60008034116110a8576040517f08c379a000000000000000000000000000000000000000000000000000000000815260040161109f906125f0565b60405180910390fd5b34600360003373ffffffffffffffffffffffffffffffffffffffff1673ffffffffffffffffffffffffffffffffffffffff16815260200190815260200160002060040160008282546110fa9190612338565b925050819055506001905090565b60046020528060005260406000206000915054906101000a900460ff1681565b60008160ff1610158015611140575060058160ff1611155b61117f576040517f08c379a000000000000000000000000000000000000000000000000000000000815260040161117690612682565b60405180910390fd5b60008260ff16101580156111cf5750600b8160ff16815481106111a5576111a461212d565b5b90600052602060002090602091828204019190069054906101000a900460ff1660ff168260ff1611155b61120e576040517f08c379a000000000000000000000000000000000000000000000000000000000815260040161120590612714565b60405180910390fd5b600d60405180608001604052803373ffffffffffffffffffffffffffffffffffffffff1681526020018360ff1681526020018460ff16815260200134815250908060018154018082558091505060019003906000526020600020906002020160009091909190915060008201518160000160006101000a81548173ffffffffffffffffffffffffffffffffffffffff021916908373ffffffffffffffffffffffffffffffffffffffff16021790555060208201518160000160146101000a81548160ff021916908360ff16021790555060408201518160000160156101000a81548160ff021916908360ff1602179055506060820151816001015550505050565b60603373ffffffffffffffffffffffffffffffffffffffff16600360003373ffffffffffffffffffffffffffffffffffffffff1673ffffffffffffffffffffffffffffffffffffffff16815260200190815260200160002060050160009054906101000a900473ffffffffffffffffffffffffffffffffffffffff1673ffffffffffffffffffffffffffffffffffffffff16146113e1576040517f08c379a00000000000000000000000000000000000000000000000000000000081526004016113d8906127a6565b60405180910390fd5b600082905080600360003373ffffffffffffffffffffffffffffffffffffffff1673ffffffffffffffffffffffffffffffffffffffff16815260200190815260200160002060000190816114359190612972565b5080915050919050565b6000600c54905090565b600080670de0b6b3a7640000476114609190612a44565b600154915091509091565b6000808251116114b0576040517f08c379a00000000000000000000000000000000000000000000000000000000081526004016114a790612ac1565b60405180910390fd5b600033905060006040518060e00160405280858152602001600081526020016000815260200160008152602001600081526020018373ffffffffffffffffffffffffffffffffffffffff16815260200160011515815250905080600360008473ffffffffffffffffffffffffffffffffffffffff1673ffffffffffffffffffffffffffffffffffffffff168152602001908152602001600020600082015181600001908161155e9190612972565b506020820151816001015560408201518160020155606082015181600301556080820151816004015560a08201518160050160006101000a81548173ffffffffffffffffffffffffffffffffffffffff021916908373ffffffffffffffffffffffffffffffffffffffff16021790555060c08201518160050160146101000a81548160ff0219169083151502179055509050508192505050919050565b60606000806000806000803373ffffffffffffffffffffffffffffffffffffffff16600360003373ffffffffffffffffffffffffffffffffffffffff1673ffffffffffffffffffffffffffffffffffffffff16815260200190815260200160002060050160009054906101000a900473ffffffffffffffffffffffffffffffffffffffff1673ffffffffffffffffffffffffffffffffffffffff16146116d6576040517f08c379a00000000000000000000000000000000000000000000000000000000081526004016116cd906127a6565b60405180910390fd5b600360003373ffffffffffffffffffffffffffffffffffffffff1673ffffffffffffffffffffffffffffffffffffffff168152602001908152602001600020600001600360003373ffffffffffffffffffffffffffffffffffffffff1673ffffffffffffffffffffffffffffffffffffffff16815260200190815260200160002060010154600360003373ffffffffffffffffffffffffffffffffffffffff1673ffffffffffffffffffffffffffffffffffffffff16815260200190815260200160002060020154600360003373ffffffffffffffffffffffffffffffffffffffff1673ffffffffffffffffffffffffffffffffffffffff16815260200190815260200160002060030154600360003373ffffffffffffffffffffffffffffffffffffffff1673ffffffffffffffffffffffffffffffffffffffff16815260200190815260200160002060040154600360003373ffffffffffffffffffffffffffffffffffffffff1673ffffffffffffffffffffffffffffffffffffffff16815260200190815260200160002060050160009054906101000a900473ffffffffffffffffffffffffffffffffffffffff16600360003373ffffffffffffffffffffffffffffffffffffffff1673ffffffffffffffffffffffffffffffffffffffff16815260200190815260200160002060050160149054906101000a900460ff168680546118e3906123e3565b80601f016020809104026020016040519081016040528092919081815260200182805461190f906123e3565b801561195c5780601f106119315761010080835404028352916020019161195c565b820191906000526020600020905b81548152906001019060200180831161193f57829003601f168201915b50505050509650965096509650965096509650965090919293949596565b508054600082556002029060005260206000209081019061199b919061199e565b50565b5b80821115611a0857600080820160006101000a81549073ffffffffffffffffffffffffffffffffffffffff02191690556000820160146101000a81549060ff02191690556000820160156101000a81549060ff021916905560018201600090555060020161199f565b5090565b6000819050919050565b611a1f81611a0c565b82525050565b6000602082019050611a3a6000830184611a16565b92915050565b600060ff82169050919050565b611a5681611a40565b82525050565b600060a082019050611a716000830188611a16565b611a7e6020830187611a4d565b611a8b6040830186611a4d565b611a986060830185611a16565b611aa56080830184611a16565b9695505050505050565b6000604051905090565b600080fd5b600080fd5b611acc81611a0c565b8114611ad757600080fd5b50565b600081359050611ae981611ac3565b92915050565b600060208284031215611b0557611b04611ab9565b5b6000611b1384828501611ada565b91505092915050565b600073ffffffffffffffffffffffffffffffffffffffff82169050919050565b6000611b4782611b1c565b9050919050565b611b5781611b3c565b82525050565b6000608082019050611b726000830187611b4e565b611b7f6020830186611a4d565b611b8c6040830185611a4d565b611b996060830184611a16565b95945050505050565b611bab81611b3c565b8114611bb657600080fd5b50565b600081359050611bc881611ba2565b92915050565b600060208284031215611be457611be3611ab9565b5b6000611bf284828501611bb9565b91505092915050565b600081519050919050565b600082825260208201905092915050565b60005b83811015611c35578082015181840152602081019050611c1a565b60008484015250505050565b6000601f19601f8301169050919050565b6000611c5d82611bfb565b611c678185611c06565b9350611c77818560208601611c17565b611c8081611c41565b840191505092915050565b60008115159050919050565b611ca081611c8b565b82525050565b600060e0820190508181036000830152611cc0818a611c52565b9050611ccf6020830189611a16565b611cdc6040830188611a16565b611ce96060830187611a16565b611cf66080830186611a16565b611d0360a0830185611b4e565b611d1060c0830184611c97565b98975050505050505050565b6000608082019050611d316000830187611a16565b611d3e6020830186611a16565b611d4b6040830185611a16565b611d586060830184611a16565b95945050505050565b6000602082019050611d766000830184611c97565b92915050565b611d8581611a40565b8114611d9057600080fd5b50565b600081359050611da281611d7c565b92915050565b60008060408385031215611dbf57611dbe611ab9565b5b6000611dcd85828601611d93565b9250506020611dde85828601611d93565b9150509250929050565b600080fd5b600080fd5b7f4e487b7100000000000000000000000000000000000000000000000000000000600052604160045260246000fd5b611e2a82611c41565b810181811067ffffffffffffffff82111715611e4957611e48611df2565b5b80604052505050565b6000611e5c611aaf565b9050611e688282611e21565b919050565b600067ffffffffffffffff821115611e8857611e87611df2565b5b611e9182611c41565b9050602081019050919050565b82818337600083830152505050565b6000611ec0611ebb84611e6d565b611e52565b905082815260208101848484011115611edc57611edb611ded565b5b611ee7848285611e9e565b509392505050565b600082601f830112611f0457611f03611de8565b5b8135611f14848260208601611ead565b91505092915050565b600060208284031215611f3357611f32611ab9565b5b600082013567ffffffffffffffff811115611f5157611f50611abe565b5b611f5d84828501611eef565b91505092915050565b60006020820190508181036000830152611f808184611c52565b905092915050565b6000604082019050611f9d6000830185611a16565b611faa6020830184611a16565b9392505050565b6000602082019050611fc66000830184611b4e565b92915050565b7f6e6f6e20636920736f6e6f2067696f6361746500000000000000000000000000600082015250565b6000612002601383611c06565b915061200d82611fcc565b602082019050919050565b6000602082019050818103600083015261203181611ff5565b9050919050565b7f6e6f6e2065207061737361746f20616262617374616e7a612074656d706f207060008201527f657220706f74657220726967696f636172650000000000000000000000000000602082015250565b6000612094603283611c06565b915061209f82612038565b604082019050919050565b600060208201905081810360008301526120c381612087565b9050919050565b7f4e487b7100000000000000000000000000000000000000000000000000000000600052601160045260246000fd5b600061210482611a0c565b915061210f83611a0c565b9250828203905081811115612127576121266120ca565b5b92915050565b7f4e487b7100000000000000000000000000000000000000000000000000000000600052603260045260246000fd5b6000819050919050565b61217761217282611a0c565b61215c565b82525050565b6000819050919050565b6000819050919050565b6121a261219d8261217d565b612187565b82525050565b60008160f81b9050919050565b60006121c0826121a8565b9050919050565b6121d86121d382611a40565b6121b5565b82525050565b60008160601b9050919050565b60006121f6826121de565b9050919050565b6000612208826121eb565b9050919050565b61222061221b82611b3c565b6121fd565b82525050565b60006122328289612166565b6020820191506122428288612166565b6020820191506122528287612191565b60208201915061226282866121c7565b600182019150612272828561220f565b60148201915061228282846121c7565b600182019150819050979650505050505050565b7f4e487b7100000000000000000000000000000000000000000000000000000000600052601260045260246000fd5b60006122d082611a0c565b91506122db83611a0c565b9250826122eb576122ea612296565b5b828206905092915050565b600061230182611a0c565b915061230c83611a0c565b925082820261231a81611a0c565b91508282048414831517612331576123306120ca565b5b5092915050565b600061234382611a0c565b915061234e83611a0c565b9250828201905080821115612366576123656120ca565b5b92915050565b600061237782611a0c565b91507fffffffffffffffffffffffffffffffffffffffffffffffffffffffffffffffff82036123a9576123a86120ca565b5b600182019050919050565b7f4e487b7100000000000000000000000000000000000000000000000000000000600052602260045260246000fd5b600060028204905060018216806123fb57607f821691505b60208210810361240e5761240d6123b4565b5b50919050565b7f6e6f6e2068616920736f6c6469206461207072656c6576617265000000000000600082015250565b600061244a601a83611c06565b915061245582612414565b602082019050919050565b600060208201905081810360008301526124798161243d565b9050919050565b7f6e6f6e2068616920616262617374616e7a6120736f6c64690000000000000000600082015250565b60006124b6601883611c06565b91506124c182612480565b602082019050919050565b600060208201905081810360008301526124e5816124a9565b9050919050565b7f6e6f6e20736920736f6e6f20616262617374616e7a6120666f6e7369206e656c60008201527f20636f6e74726174746f20706572207061676172746900000000000000000000602082015250565b6000612548603683611c06565b9150612553826124ec565b604082019050919050565b600060208201905081810360008301526125778161253b565b9050919050565b7f6e6f6e2070756f69207472617366657269726520756e61207175616e7469746160008201527f2070617269206120300000000000000000000000000000000000000000000000602082015250565b60006125da602983611c06565b91506125e58261257e565b604082019050919050565b60006020820190508181036000830152612609816125cd565b9050919050565b7f6e6f6e2068616920696e73657269746f206c61206769757374612067696f636160008201527f7461000000000000000000000000000000000000000000000000000000000000602082015250565b600061266c602283611c06565b915061267782612610565b604082019050919050565b6000602082019050818103600083015261269b8161265f565b9050919050565b7f636865206e756d65726f2064692067696f63617461206861692073656c657a6960008201527f6f6e61746f3f0000000000000000000000000000000000000000000000000000602082015250565b60006126fe602683611c06565b9150612709826126a2565b604082019050919050565b6000602082019050818103600083015261272d816126f1565b9050919050565b7f4c27696e646972697a7a6f206e6f6e20657369737465206e656c206d6170706960008201527f6e67206f206e6f6e20636f6d62616369616e6f00000000000000000000000000602082015250565b6000612790603383611c06565b915061279b82612734565b604082019050919050565b600060208201905081810360008301526127bf81612783565b9050919050565b60008190508160005260206000209050919050565b60006020601f8301049050919050565b600082821b905092915050565b6000600883026128287fffffffffffffffffffffffffffffffffffffffffffffffffffffffffffffffff826127eb565b61283286836127eb565b95508019841693508086168417925050509392505050565b6000819050919050565b600061286f61286a61286584611a0c565b61284a565b611a0c565b9050919050565b6000819050919050565b61288983612854565b61289d61289582612876565b8484546127f8565b825550505050565b600090565b6128b26128a5565b6128bd818484612880565b505050565b5b818110156128e1576128d66000826128aa565b6001810190506128c3565b5050565b601f821115612926576128f7816127c6565b612900846127db565b8101602085101561290f578190505b61292361291b856127db565b8301826128c2565b50505b505050565b600082821c905092915050565b60006129496000198460080261292b565b1980831691505092915050565b60006129628383612938565b9150826002028217905092915050565b61297b82611bfb565b67ffffffffffffffff81111561299457612993611df2565b5b61299e82546123e3565b6129a98282856128e5565b600060209050601f8311600181146129dc57600084156129ca578287015190505b6129d48582612956565b865550612a3c565b601f1984166129ea866127c6565b60005b82811015612a12578489015182556001820191506020850194506020810190506129ed565b86831015612a2f5784890151612a2b601f891682612938565b8355505b6001600288020188555050505b505050505050565b6000612a4f82611a0c565b9150612a5a83611a0c565b925082612a6a57612a69612296565b5b828204905092915050565b7f4e6f6d6520696e73657269746f206e6f6e2076616c69646f0000000000000000600082015250565b6000612aab601883611c06565b9150612ab682612a75565b602082019050919050565b60006020820190508181036000830152612ada81612a9e565b905091905056fea2646970667358221220e48801cbc6923f856607db21255840332d6bd9eac5beaf47c2db03fb73db416f64736f6c63430008130033",
  "immutableReferences": {},
  "source": "// SPDX-License-Identifier: MIT\r\nimport \"./Profile.sol\";\r\npragma solidity ^0.8.19;\r\n\r\n\r\ncontract Roulette is Profile{\r\n  \r\n  uint betAmount;\r\n  uint necessaryBalance;\r\n  uint nextRoundTimestamp;\r\n  uint256 maxAmountAllowedInTheBank;\r\n  mapping (address => uint256) winnings;\r\n  uint8[] payouts;\r\n  uint8[] numberRange;\r\n  uint estratto;\r\n  \r\n  /*\r\n    BetTypes are as follow:\r\n      0: color\r\n      1: column\r\n      2: dozen\r\n      3: eighteen\r\n      4: modulus\r\n      5: number\r\n      \r\n    Depending on the BetType, number will be:\r\n      color: 0 for black, 1 for red\r\n      column: 0 for left, 1 for middle, 2 for right\r\n      dozen: 0 for first, 1 for second, 2 for third\r\n      eighteen: 0 for low, 1 for high\r\n      modulus: 0 for even, 1 for odd\r\n      number: number\r\n  */\r\n  \r\n  struct Bet {\r\n    address player;\r\n    uint8 betType;\r\n    uint8 number;\r\n    uint amount;\r\n  }\r\n  Bet[] public bets;\r\n  \r\n  constructor() payable {\r\n    necessaryBalance = 0;\r\n    nextRoundTimestamp = block.timestamp;\r\n    payouts = [2,3,3,2,2,36];\r\n    numberRange = [1,2,2,1,1,36];\r\n    betAmount = 10000000000000000; /* 0.01 ether */\r\n    maxAmountAllowedInTheBank = 2000000000000000000; /* 2 ether */\r\n  }\r\n\r\n  event RandomNumber(uint256 number);\r\n  \r\n  function getStatus() public view returns(uint, uint, uint, uint) {\r\n    return (\r\n      bets.length,             // number of active bets\r\n      bets.length * betAmount, // value of active bets\r\n      nextRoundTimestamp,      // when can we play again\r\n      winnings[msg.sender]     // winnings of player\r\n    ); \r\n  }\r\n\r\n\r\n  function bet(uint8 number, uint8 betType) payable public{\r\n    /* \r\n       A bet is valid when:\r\n       1 - the value of the bet is correct (=betAmount)\r\n       2 - betType is known (between 0 and 5)\r\n       3 - the option betted is valid (don't bet on 37!)\r\n       4 - the bank has sufficient funds to pay the bet\r\n    */\r\n    //require(msg.value == betAmount, \"non hai versato abbastanza fondi\");                               // 1\r\n   // require(amount>=10000000000000000,\"per ogni puntata almeno 0.01eth\");\r\n    require(betType >= 0 && betType <= 5, \"non hai inserito la giusta giocata\");                         // 2\r\n    require(number >= 0 && number <= numberRange[betType], \"che numero di giocata hai selezionato?\");        // 3\r\n   \r\n   // uint payoutForThisBet = payouts[betType] * msg.value; \r\n  //  uint provisionalBalance = necessaryBalance + payoutForThisBet;\r\n  // require(provisionalBalance < address(this).balance, \"la banca non ha abbastanza fondi da darti se vincessi\");           // 4\r\n    /* we are good to go */\r\n    //necessaryBalance += payoutForThisBet;\r\n\r\n\r\n    bets.push(Bet({\r\n      amount: msg.value,\r\n      betType: betType,\r\n      player: msg.sender,\r\n      number: number\r\n    }));\r\n\r\n  }\r\n\r\n\r\n//prova per valutare la corretta esecuzione della funzione bet\r\n function getBet() public view returns(uint,uint8,uint8,uint,uint){\r\n  uint lung= bets.length;\r\n  Bet memory b= bets[lung-1];\r\n       return (\r\n        b.amount,\r\n        b.betType,\r\n        b.number,\r\n        lung,\r\n        address(this).balance\r\n       );\r\n    \r\n  }\r\n\r\n  function getNumber() public view returns(uint){\r\n       return estratto;\r\n  }\r\n\r\n\r\n   function spinWheel() public returns (uint){\r\n    /* are there any bets? */\r\n    require(bets.length > 0, \"non ci sono giocate\");\r\n    //require(msg.value > 10000000000000000 wei, \"non sono stati versati abbastanza fondi \");  \r\n    /* are we allowed to spin the wheel? */\r\n    require(block.timestamp > nextRoundTimestamp, \"non e passato abbastanza tempo per poter rigiocare\");\r\n    /* next time we are allowed to spin the wheel again */\r\n    nextRoundTimestamp = block.timestamp;\r\n    /* calculate 'random' number */\r\n    uint diff = block.difficulty;\r\n    bytes32 hash = blockhash(block.number-1);\r\n    Bet memory lb = bets[bets.length-1];\r\n    uint number = uint(keccak256(abi.encodePacked(block.timestamp, diff, hash, lb.betType, lb.player, lb.number))) % 37;\r\n    /* check every bet for this number */ \r\n    for (uint i = 0; i < bets.length; i++) {\r\n      bool won = false;\r\n      Bet memory b = bets[i];\r\n      if (number == 0) {\r\n        won = (b.betType == 5 && b.number == 0);                   /* bet on 0 */\r\n      } else {\r\n        if (b.betType == 5) { \r\n          won = (b.number == number);                              /* bet on number */\r\n        } else if (b.betType == 4) {\r\n          if (b.number == 0) won = (number % 2 == 0);              /* bet on even */\r\n          if (b.number == 1) won = (number % 2 == 1);              /* bet on odd */\r\n        } else if (b.betType == 3) {            \r\n          if (b.number == 0) won = (number <= 18);                 /* bet on low 18s */\r\n          if (b.number == 1) won = (number >= 19);                 /* bet on high 18s */\r\n        } else if (b.betType == 2) {                               \r\n          if (b.number == 0) won = (number <= 12);                 /* bet on 1st dozen */\r\n          if (b.number == 1) won = (number > 12 && number <= 24);  /* bet on 2nd dozen */\r\n          if (b.number == 2) won = (number > 24);                  /* bet on 3rd dozen */\r\n        } else if (b.betType == 1) {               \r\n          if (b.number == 0) won = (number % 3 == 1);              /* bet on left column */\r\n          if (b.number == 1) won = (number % 3 == 2);              /* bet on middle column */\r\n          if (b.number == 2) won = (number % 3 == 0);              /* bet on right column */\r\n        } else if (b.betType == 0) {\r\n          if (b.number == 0) {                                     /* bet on black */\r\n            if (number <= 10 || (number >= 20 && number <= 28)) {\r\n              won = (number % 2 == 0);\r\n            } else {\r\n              won = (number % 2 == 1);\r\n            }\r\n          } else {                                                 /* bet on red */\r\n            if (number <= 10 || (number >= 20 && number <= 28)) {\r\n              won = (number % 2 == 1);\r\n            } else {\r\n              won = (number % 2 == 0);\r\n            }\r\n          }\r\n        }\r\n      }\r\n      /* if winning bet, add to player winnings balance */\r\n      if (won) {\r\n        winnings[b.player] += betAmount * payouts[b.betType];\r\n        //aggiorniamo le giocate del giocatore;\r\n        addToPlayer[b.player].game +=1;\r\n        addToPlayer[b.player].cashInBank += betAmount * payouts[b.betType];\r\n      }else{\r\n        addToPlayer[b.player].game +=1;\r\n      }\r\n    }\r\n    /* delete all bets */\r\n    //bets.length = 0;\r\n    delete bets;\r\n\r\n    /* reset necessaryBalance */\r\n    necessaryBalance = 0;\r\n\r\n    /* returns 'random' number to UI */\r\n    emit RandomNumber(number);\r\n    return number;\r\n  }\r\n\r\n\r\n  /*\r\n\r\n  function cashOut() public {\r\n    address payable player = payable(msg.sender);\r\n    uint256 amount = winnings[player];\r\n    require(amount > 0);\r\n    require(amount <= address(this).balance);\r\n    winnings[player] = 0;\r\n    player.transfer(amount);\r\n  }\r\n  \r\n  function takeProfits() internal {\r\n    uint amount = address(this).balance - maxAmountAllowedInTheBank;\r\n    if (amount > 0) creator.transfer(amount);\r\n  }\r\n  \r\n  function creatorKill() public {\r\n    require(msg.sender == creator);\r\n    \r\n    creator.transfer(address(this).balance);\r\n    //selfdestruct(creator);\r\n  }\r\n  */\r\n \r\n}",
  "sourcePath": "/Users/mac_marco/BlockBet/contracts/Roulette.sol",
  "compiler": {
    "name": "solc",
    "version": "0.8.19+commit.7dd6d404.Emscripten.clang"
  },
  "schemaVersion": "3.4.16",
  "updatedAt": "2024-02-13T09:12:42.681Z",
  "networkType": "ethereum",
  "devdoc": {
    "kind": "dev",
    "methods": {},
    "version": 1
  },
  "userdoc": {
    "kind": "user",
    "methods": {},
    "version": 1
  }
}