{
  "contractName": "Roulette",
  "abi": [
    {
      "inputs": [],
      "stateMutability": "payable",
      "type": "constructor",
      "payable": true
    },
    {
      "anonymous": false,
      "inputs": [
        {
          "indexed": false,
          "internalType": "uint256",
          "name": "number",
          "type": "uint256"
        }
      ],
      "name": "RandomNumber",
      "type": "event"
    },
    {
      "anonymous": false,
      "inputs": [
        {
          "indexed": false,
          "internalType": "string",
          "name": "",
          "type": "string"
        },
        {
          "indexed": false,
          "internalType": "address",
          "name": "",
          "type": "address"
        }
      ],
      "name": "existingPlayer",
      "type": "event"
    },
    {
      "anonymous": false,
      "inputs": [
        {
          "indexed": false,
          "internalType": "string",
          "name": "",
          "type": "string"
        },
        {
          "indexed": false,
          "internalType": "address",
          "name": "",
          "type": "address"
        },
        {
          "indexed": false,
          "internalType": "uint256",
          "name": "",
          "type": "uint256"
        }
      ],
      "name": "newPlayer",
      "type": "event"
    },
    {
      "inputs": [],
      "name": "addEther",
      "outputs": [
        {
          "internalType": "bool",
          "name": "",
          "type": "bool"
        }
      ],
      "stateMutability": "payable",
      "type": "function",
      "payable": true
    },
    {
      "inputs": [
        {
          "internalType": "string",
          "name": "_name",
          "type": "string"
        }
      ],
      "name": "addPlayer",
      "outputs": [
        {
          "internalType": "address",
          "name": "",
          "type": "address"
        }
      ],
      "stateMutability": "payable",
      "type": "function",
      "payable": true
    },
    {
      "inputs": [
        {
          "internalType": "address",
          "name": "",
          "type": "address"
        }
      ],
      "name": "addToPlayer",
      "outputs": [
        {
          "internalType": "string",
          "name": "username",
          "type": "string"
        },
        {
          "internalType": "uint256",
          "name": "game",
          "type": "uint256"
        },
        {
          "internalType": "uint256",
          "name": "gameWin",
          "type": "uint256"
        },
        {
          "internalType": "uint256",
          "name": "maxWin",
          "type": "uint256"
        },
        {
          "internalType": "uint256",
          "name": "totalCashFlow",
          "type": "uint256"
        },
        {
          "internalType": "uint256",
          "name": "cashInBank",
          "type": "uint256"
        },
        {
          "internalType": "address",
          "name": "addPlayer",
          "type": "address"
        },
        {
          "internalType": "bool",
          "name": "exist",
          "type": "bool"
        }
      ],
      "stateMutability": "view",
      "type": "function",
      "constant": true
    },
    {
      "inputs": [
        {
          "internalType": "uint256",
          "name": "",
          "type": "uint256"
        }
      ],
      "name": "bets",
      "outputs": [
        {
          "internalType": "address",
          "name": "player",
          "type": "address"
        },
        {
          "internalType": "uint8",
          "name": "betType",
          "type": "uint8"
        },
        {
          "internalType": "uint8",
          "name": "number",
          "type": "uint8"
        },
        {
          "internalType": "uint256",
          "name": "amount",
          "type": "uint256"
        }
      ],
      "stateMutability": "view",
      "type": "function",
      "constant": true
    },
    {
      "inputs": [
        {
          "internalType": "uint256",
          "name": "x",
          "type": "uint256"
        }
      ],
      "name": "cashOut",
      "outputs": [],
      "stateMutability": "nonpayable",
      "type": "function"
    },
    {
      "inputs": [],
      "name": "getStato",
      "outputs": [
        {
          "internalType": "uint256",
          "name": "",
          "type": "uint256"
        },
        {
          "internalType": "uint256",
          "name": "",
          "type": "uint256"
        }
      ],
      "stateMutability": "view",
      "type": "function",
      "constant": true
    },
    {
      "inputs": [],
      "name": "getStatoUtente",
      "outputs": [
        {
          "internalType": "string",
          "name": "",
          "type": "string"
        },
        {
          "internalType": "uint256",
          "name": "",
          "type": "uint256"
        },
        {
          "internalType": "uint256",
          "name": "",
          "type": "uint256"
        },
        {
          "internalType": "uint256",
          "name": "",
          "type": "uint256"
        },
        {
          "internalType": "uint256",
          "name": "",
          "type": "uint256"
        },
        {
          "internalType": "address",
          "name": "",
          "type": "address"
        },
        {
          "internalType": "uint256",
          "name": "",
          "type": "uint256"
        },
        {
          "internalType": "bool",
          "name": "",
          "type": "bool"
        }
      ],
      "stateMutability": "view",
      "type": "function",
      "constant": true
    },
    {
      "inputs": [
        {
          "internalType": "address",
          "name": "",
          "type": "address"
        }
      ],
      "name": "indirizzoEsiste",
      "outputs": [
        {
          "internalType": "bool",
          "name": "",
          "type": "bool"
        }
      ],
      "stateMutability": "view",
      "type": "function",
      "constant": true
    },
    {
      "inputs": [
        {
          "internalType": "string",
          "name": "_username",
          "type": "string"
        }
      ],
      "name": "setUsername",
      "outputs": [
        {
          "internalType": "string",
          "name": "",
          "type": "string"
        }
      ],
      "stateMutability": "nonpayable",
      "type": "function"
    },
    {
      "inputs": [],
      "name": "getStatus",
      "outputs": [
        {
          "internalType": "uint256",
          "name": "",
          "type": "uint256"
        },
        {
          "internalType": "uint256",
          "name": "",
          "type": "uint256"
        },
        {
          "internalType": "uint256",
          "name": "",
          "type": "uint256"
        },
        {
          "internalType": "uint256",
          "name": "",
          "type": "uint256"
        }
      ],
      "stateMutability": "view",
      "type": "function",
      "constant": true
    },
    {
      "inputs": [
        {
          "internalType": "uint8",
          "name": "number",
          "type": "uint8"
        },
        {
          "internalType": "uint8",
          "name": "betType",
          "type": "uint8"
        },
        {
          "internalType": "uint256",
          "name": "am",
          "type": "uint256"
        }
      ],
      "name": "bet",
      "outputs": [],
      "stateMutability": "payable",
      "type": "function",
      "payable": true
    },
    {
      "inputs": [],
      "name": "getBet",
      "outputs": [
        {
          "internalType": "uint256",
          "name": "",
          "type": "uint256"
        },
        {
          "internalType": "uint8",
          "name": "",
          "type": "uint8"
        },
        {
          "internalType": "uint8",
          "name": "",
          "type": "uint8"
        },
        {
          "internalType": "uint256",
          "name": "",
          "type": "uint256"
        },
        {
          "internalType": "uint256",
          "name": "",
          "type": "uint256"
        }
      ],
      "stateMutability": "view",
      "type": "function",
      "constant": true
    },
    {
      "inputs": [],
      "name": "spinWheel",
      "outputs": [],
      "stateMutability": "nonpayable",
      "type": "function"
    }
  ],
  "bytecode": "0x6080604052670de0b6b3a764000060015530600260006101000a81548173ffffffffffffffffffffffffffffffffffffffff021916908373ffffffffffffffffffffffffffffffffffffffff160217905550336000806101000a81548173ffffffffffffffffffffffffffffffffffffffff021916908373ffffffffffffffffffffffffffffffffffffffff1602179055506040518061010001604052806040518060400160405280600781526020017f5f6164696c5f32000000000000000000000000000000000000000000000000008152508152602001600081526020016000815260200160008152602001600081526020016000815260200160008054906101000a900473ffffffffffffffffffffffffffffffffffffffff1673ffffffffffffffffffffffffffffffffffffffff16815260200160011515815250600360008060009054906101000a900473ffffffffffffffffffffffffffffffffffffffff1673ffffffffffffffffffffffffffffffffffffffff1673ffffffffffffffffffffffffffffffffffffffff1681526020019081526020016000206000820151816000019081620001b591906200067b565b506020820151816001015560408201518160020155606082015181600301556080820151816004015560a0820151816005015560c08201518160060160006101000a81548173ffffffffffffffffffffffffffffffffffffffff021916908373ffffffffffffffffffffffffffffffffffffffff16021790555060e08201518160060160146101000a81548160ff0219169083151502179055509050506000600681905550426007819055506040518060c00160405280600160ff168152602001600260ff168152602001600260ff168152602001600160ff168152602001600160ff168152602001602360ff16815250600a906006620002b892919062000334565b506040518060c00160405280600160ff168152602001600260ff168152602001600260ff168152602001600160ff168152602001600160ff168152602001602460ff16815250600b9060066200031092919062000334565b50662386f26fc10000600581905550671bc16d674ec8000060088190555062000762565b82805482825590600052602060002090601f01602090048101928215620003cf5791602002820160005b838211156200039e57835183826101000a81548160ff021916908360ff16021790555092602001926001016020816000010492830192600103026200035e565b8015620003cd5782816101000a81549060ff02191690556001016020816000010492830192600103026200039e565b505b509050620003de9190620003e2565b5090565b5b80821115620003fd576000816000905550600101620003e3565b5090565b600081519050919050565b7f4e487b7100000000000000000000000000000000000000000000000000000000600052604160045260246000fd5b7f4e487b7100000000000000000000000000000000000000000000000000000000600052602260045260246000fd5b600060028204905060018216806200048357607f821691505b6020821081036200049957620004986200043b565b5b50919050565b60008190508160005260206000209050919050565b60006020601f8301049050919050565b600082821b905092915050565b600060088302620005037fffffffffffffffffffffffffffffffffffffffffffffffffffffffffffffffff82620004c4565b6200050f8683620004c4565b95508019841693508086168417925050509392505050565b6000819050919050565b6000819050919050565b60006200055c62000556620005508462000527565b62000531565b62000527565b9050919050565b6000819050919050565b62000578836200053b565b62000590620005878262000563565b848454620004d1565b825550505050565b600090565b620005a762000598565b620005b48184846200056d565b505050565b5b81811015620005dc57620005d06000826200059d565b600181019050620005ba565b5050565b601f8211156200062b57620005f5816200049f565b6200060084620004b4565b8101602085101562000610578190505b620006286200061f85620004b4565b830182620005b9565b50505b505050565b600082821c905092915050565b6000620006506000198460080262000630565b1980831691505092915050565b60006200066b83836200063d565b9150826002028217905092915050565b620006868262000401565b67ffffffffffffffff811115620006a257620006a16200040c565b5b620006ae82546200046a565b620006bb828285620005e0565b600060209050601f831160018114620006f35760008415620006de578287015190505b620006ea85826200065d565b8655506200075a565b601f19841662000703866200049f565b60005b828110156200072d5784890151825560018201915060208501945060208101905062000706565b868310156200074d578489015162000749601f8916826200063d565b8355505b6001600288020188555050505b505050505050565b612d8880620007726000396000f3fe6080604052600436106100c25760003560e01c80635c7b79f51161007f578063ed59313a11610059578063ed59313a1461025f578063f3bd38fa1461029c578063f77e8b83146102c8578063fbb83ddb146102f8576100c2565b80635c7b79f5146101db5780638894dd2b14610204578063cf108a6b14610222576100c2565b806315ecef92146100c757806318ab30e6146100de57806320835e8c146100fa57806322af00fa1461012957806347478d52146101695780634e69d560146101ad575b600080fd5b3480156100d357600080fd5b506100dc61032a565b005b6100f860048036038101906100f39190611ca1565b610cec565b005b34801561010657600080fd5b5061010f610ee2565b604051610120959493929190611d12565b60405180910390f35b34801561013557600080fd5b50610150600480360381019061014b9190611d65565b610fee565b6040516101609493929190611dd3565b60405180910390f35b34801561017557600080fd5b50610190600480360381019061018b9190611e44565b611068565b6040516101a4989796959493929190611f1c565b60405180910390f35b3480156101b957600080fd5b506101c2611165565b6040516101d29493929190611fa1565b60405180910390f35b3480156101e757600080fd5b5061020260048036038101906101fd9190611d65565b6111d5565b005b61020c61140d565b6040516102199190611fe6565b60405180910390f35b34801561022e57600080fd5b5061024960048036038101906102449190611e44565b6114b1565b6040516102569190611fe6565b60405180910390f35b34801561026b57600080fd5b5061028660048036038101906102819190612136565b6114d1565b604051610293919061217f565b60405180910390f35b3480156102a857600080fd5b506102b1611601565b6040516102bf9291906121a1565b60405180910390f35b6102e260048036038101906102dd9190612136565b611623565b6040516102ef91906121ca565b60405180910390f35b34801561030457600080fd5b5061030d6117c5565b6040516103219897969594939291906121e5565b60405180910390f35b6000600d8054905011610372576040517f08c379a0000000000000000000000000000000000000000000000000000000008152600401610369906122b6565b60405180910390fd5b60075442116103b6576040517f08c379a00000000000000000000000000000000000000000000000000000000081526004016103ad90612348565b60405180910390fd5b42600781905550600044905060006001436103d19190612397565b4090506000600d6001600d805490506103ea9190612397565b815481106103fb576103fa6123cb565b5b90600052602060002090600202016040518060800160405290816000820160009054906101000a900473ffffffffffffffffffffffffffffffffffffffff1673ffffffffffffffffffffffffffffffffffffffff1673ffffffffffffffffffffffffffffffffffffffff1681526020016000820160149054906101000a900460ff1660ff1660ff1681526020016000820160159054906101000a900460ff1660ff1660ff1681526020016001820154815250509050600060254285858560200151866000015187604001516040516020016104db969594939291906124c4565b6040516020818303038152906040528051906020012060001c6104fe9190612563565b90506000806000600d8381548110610519576105186123cb565b5b90600052602060002090600202016040518060800160405290816000820160009054906101000a900473ffffffffffffffffffffffffffffffffffffffff1673ffffffffffffffffffffffffffffffffffffffff1673ffffffffffffffffffffffffffffffffffffffff1681526020016000820160149054906101000a900460ff1660ff1660ff1681526020016000820160159054906101000a900460ff1660ff1660ff1681526020016001820154815250509050600d83815481106105e2576105e16123cb565b5b90600052602060002090600202016001015460058190555060008403610627576005816020015160ff1614801561062057506000816040015160ff16145b9150610884565b6005816020015160ff16036106475783816040015160ff16149150610883565b6004816020015160ff160361069f576000816040015160ff16036106785760006002856106749190612563565b1491505b6001816040015160ff160361069a5760016002856106969190612563565b1491505b610882565b6003816020015160ff16036106e1576000816040015160ff16036106c557601284111591505b6001816040015160ff16036106dc57601384101591505b610881565b6002816020015160ff1603610745576000816040015160ff160361070757600c84111591505b6001816040015160ff160361072a57600c84118015610727575060188411155b91505b6002816040015160ff1603610740576018841191505b610880565b6001816020015160ff16036107bf576000816040015160ff16036107765760016003856107729190612563565b1491505b6001816040015160ff16036107985760026003856107949190612563565b1491505b6002816040015160ff16036107ba5760006003856107b69190612563565b1491505b61087f565b6000816020015160ff160361087e576000816040015160ff160361082f57600a841115806107fb5750601484101580156107fa5750601c8411155b5b1561081757600060028561080f9190612563565b14915061082a565b60016002856108269190612563565b1491505b61087d565b600a8411158061084d57506014841015801561084c5750601c8411155b5b156108695760016002856108619190612563565b14915061087c565b60006002856108789190612563565b1491505b5b5b5b5b5b5b5b5b60055460036000836000015173ffffffffffffffffffffffffffffffffffffffff1673ffffffffffffffffffffffffffffffffffffffff16815260200190815260200160002060040160008282546108dc9190612594565b925050819055508115610b9957600160036000836000015173ffffffffffffffffffffffffffffffffffffffff1673ffffffffffffffffffffffffffffffffffffffff16815260200190815260200160002060010160008282546109409190612594565b92505081905550600160036000836000015173ffffffffffffffffffffffffffffffffffffffff1673ffffffffffffffffffffffffffffffffffffffff168152602001908152602001600020600201600082825461099e9190612594565b92505081905550600a816020015160ff16815481106109c0576109bf6123cb565b5b90600052602060002090602091828204019190069054906101000a900460ff1660ff166005546109f091906125c8565b60036000836000015173ffffffffffffffffffffffffffffffffffffffff1673ffffffffffffffffffffffffffffffffffffffff1681526020019081526020016000206005016000828254610a459190612594565b9250508190555060036000826000015173ffffffffffffffffffffffffffffffffffffffff1673ffffffffffffffffffffffffffffffffffffffff16815260200190815260200160002060030154600554600a836020015160ff1681548110610ab157610ab06123cb565b5b90600052602060002090602091828204019190069054906101000a900460ff1660ff16600554610ae191906125c8565b610aeb9190612594565b1115610b9457600554600a826020015160ff1681548110610b0f57610b0e6123cb565b5b90600052602060002090602091828204019190069054906101000a900460ff1660ff16600554610b3f91906125c8565b610b499190612594565b60036000836000015173ffffffffffffffffffffffffffffffffffffffff1673ffffffffffffffffffffffffffffffffffffffff168152602001908152602001600020600301819055505b610c96565b60055460036000836000015173ffffffffffffffffffffffffffffffffffffffff1673ffffffffffffffffffffffffffffffffffffffff16815260200190815260200160002060050154610bed9190612397565b60036000836000015173ffffffffffffffffffffffffffffffffffffffff1673ffffffffffffffffffffffffffffffffffffffff16815260200190815260200160002060050181905550600160036000836000015173ffffffffffffffffffffffffffffffffffffffff1673ffffffffffffffffffffffffffffffffffffffff1681526020019081526020016000206001016000828254610c8e9190612594565b925050819055505b600d6000610ca49190611b8c565b60006006819055507fec6cdc8e735e4069f6e89062582f3e5532a8e71373e7ef2962fa916cf2af21f284604051610cdb919061260a565b60405180910390a150505050505050565b600d6000610cfa9190611b8c565b60008260ff1610158015610d12575060058260ff1611155b610d51576040517f08c379a0000000000000000000000000000000000000000000000000000000008152600401610d4890612697565b60405180910390fd5b60008360ff1610158015610da15750600b8260ff1681548110610d7757610d766123cb565b5b90600052602060002090602091828204019190069054906101000a900460ff1660ff168360ff1611155b610de0576040517f08c379a0000000000000000000000000000000000000000000000000000000008152600401610dd790612729565b60405180910390fd5b600d60405180608001604052803373ffffffffffffffffffffffffffffffffffffffff1681526020018460ff1681526020018560ff16815260200183815250908060018154018082558091505060019003906000526020600020906002020160009091909190915060008201518160000160006101000a81548173ffffffffffffffffffffffffffffffffffffffff021916908373ffffffffffffffffffffffffffffffffffffffff16021790555060208201518160000160146101000a81548160ff021916908360ff16021790555060408201518160000160156101000a81548160ff021916908360ff160217905550606082015181600101555050505050565b600080600080600080600d8054905090506000600d600183610f049190612397565b81548110610f1557610f146123cb565b5b90600052602060002090600202016040518060800160405290816000820160009054906101000a900473ffffffffffffffffffffffffffffffffffffffff1673ffffffffffffffffffffffffffffffffffffffff1673ffffffffffffffffffffffffffffffffffffffff1681526020016000820160149054906101000a900460ff1660ff1660ff1681526020016000820160159054906101000a900460ff1660ff1660ff168152602001600182015481525050905080606001518160200151826040015184479650965096509650965050509091929394565b600d8181548110610ffe57600080fd5b90600052602060002090600202016000915090508060000160009054906101000a900473ffffffffffffffffffffffffffffffffffffffff16908060000160149054906101000a900460ff16908060000160159054906101000a900460ff16908060010154905084565b600360205280600052604060002060009150905080600001805461108b90612778565b80601f01602080910402602001604051908101604052809291908181526020018280546110b790612778565b80156111045780601f106110d957610100808354040283529160200191611104565b820191906000526020600020905b8154815290600101906020018083116110e757829003601f168201915b5050505050908060010154908060020154908060030154908060040154908060050154908060060160009054906101000a900473ffffffffffffffffffffffffffffffffffffffff16908060060160149054906101000a900460ff16905088565b600080600080600d80549050600554600d8054905061118491906125c8565b600754600960003373ffffffffffffffffffffffffffffffffffffffff1673ffffffffffffffffffffffffffffffffffffffff16815260200190815260200160002054935093509350935090919293565b6000600360003373ffffffffffffffffffffffffffffffffffffffff1673ffffffffffffffffffffffffffffffffffffffff168152602001908152602001600020600501541161125a576040517f08c379a0000000000000000000000000000000000000000000000000000000008152600401611251906127f5565b60405180910390fd5b80600360003373ffffffffffffffffffffffffffffffffffffffff1673ffffffffffffffffffffffffffffffffffffffff1681526020019081526020016000206005015410156112df576040517f08c379a00000000000000000000000000000000000000000000000000000000081526004016112d690612861565b60405180910390fd5b47600360003373ffffffffffffffffffffffffffffffffffffffff1673ffffffffffffffffffffffffffffffffffffffff168152602001908152602001600020600501541115611364576040517f08c379a000000000000000000000000000000000000000000000000000000000815260040161135b906128f3565b60405180910390fd5b600033905081600360003373ffffffffffffffffffffffffffffffffffffffff1673ffffffffffffffffffffffffffffffffffffffff16815260200190815260200160002060050160008282546113bb9190612397565b925050819055508073ffffffffffffffffffffffffffffffffffffffff166108fc839081150290604051600060405180830381858888f19350505050158015611408573d6000803e3d6000fd5b505050565b6000803411611451576040517f08c379a000000000000000000000000000000000000000000000000000000000815260040161144890612985565b60405180910390fd5b34600360003373ffffffffffffffffffffffffffffffffffffffff1673ffffffffffffffffffffffffffffffffffffffff16815260200190815260200160002060050160008282546114a39190612594565b925050819055506001905090565b60046020528060005260406000206000915054906101000a900460ff1681565b60603373ffffffffffffffffffffffffffffffffffffffff16600360003373ffffffffffffffffffffffffffffffffffffffff1673ffffffffffffffffffffffffffffffffffffffff16815260200190815260200160002060060160009054906101000a900473ffffffffffffffffffffffffffffffffffffffff1673ffffffffffffffffffffffffffffffffffffffff16146115a3576040517f08c379a000000000000000000000000000000000000000000000000000000000815260040161159a90612a17565b60405180910390fd5b600082905080600360003373ffffffffffffffffffffffffffffffffffffffff1673ffffffffffffffffffffffffffffffffffffffff16815260200190815260200160002060000190816115f79190612be3565b5080915050919050565b600080670de0b6b3a7640000476116189190612cb5565b600154915091509091565b600080825111611668576040517f08c379a000000000000000000000000000000000000000000000000000000000815260040161165f90612d32565b60405180910390fd5b6000339050600060405180610100016040528085815260200160008152602001600081526020016000815260200160008152602001600081526020018373ffffffffffffffffffffffffffffffffffffffff16815260200160011515815250905080600360008473ffffffffffffffffffffffffffffffffffffffff1673ffffffffffffffffffffffffffffffffffffffff168152602001908152602001600020600082015181600001908161171e9190612be3565b506020820151816001015560408201518160020155606082015181600301556080820151816004015560a0820151816005015560c08201518160060160006101000a81548173ffffffffffffffffffffffffffffffffffffffff021916908373ffffffffffffffffffffffffffffffffffffffff16021790555060e08201518160060160146101000a81548160ff0219169083151502179055509050508192505050919050565b606060008060008060008060003373ffffffffffffffffffffffffffffffffffffffff16600360003373ffffffffffffffffffffffffffffffffffffffff1673ffffffffffffffffffffffffffffffffffffffff16815260200190815260200160002060060160009054906101000a900473ffffffffffffffffffffffffffffffffffffffff1673ffffffffffffffffffffffffffffffffffffffff16146118a2576040517f08c379a000000000000000000000000000000000000000000000000000000000815260040161189990612a17565b60405180910390fd5b600360003373ffffffffffffffffffffffffffffffffffffffff1673ffffffffffffffffffffffffffffffffffffffff168152602001908152602001600020600001600360003373ffffffffffffffffffffffffffffffffffffffff1673ffffffffffffffffffffffffffffffffffffffff16815260200190815260200160002060010154600360003373ffffffffffffffffffffffffffffffffffffffff1673ffffffffffffffffffffffffffffffffffffffff16815260200190815260200160002060030154600360003373ffffffffffffffffffffffffffffffffffffffff1673ffffffffffffffffffffffffffffffffffffffff16815260200190815260200160002060040154600360003373ffffffffffffffffffffffffffffffffffffffff1673ffffffffffffffffffffffffffffffffffffffff16815260200190815260200160002060050154600360003373ffffffffffffffffffffffffffffffffffffffff1673ffffffffffffffffffffffffffffffffffffffff16815260200190815260200160002060060160009054906101000a900473ffffffffffffffffffffffffffffffffffffffff16600360003373ffffffffffffffffffffffffffffffffffffffff1673ffffffffffffffffffffffffffffffffffffffff16815260200190815260200160002060020154600360003373ffffffffffffffffffffffffffffffffffffffff1673ffffffffffffffffffffffffffffffffffffffff16815260200190815260200160002060060160149054906101000a900460ff16878054611af290612778565b80601f0160208091040260200160405190810160405280929190818152602001828054611b1e90612778565b8015611b6b5780601f10611b4057610100808354040283529160200191611b6b565b820191906000526020600020905b815481529060010190602001808311611b4e57829003601f168201915b50505050509750975097509750975097509750975097509091929394959697565b5080546000825560020290600052602060002090810190611bad9190611bb0565b50565b5b80821115611c1a57600080820160006101000a81549073ffffffffffffffffffffffffffffffffffffffff02191690556000820160146101000a81549060ff02191690556000820160156101000a81549060ff0219169055600182016000905550600201611bb1565b5090565b6000604051905090565b600080fd5b600080fd5b600060ff82169050919050565b611c4881611c32565b8114611c5357600080fd5b50565b600081359050611c6581611c3f565b92915050565b6000819050919050565b611c7e81611c6b565b8114611c8957600080fd5b50565b600081359050611c9b81611c75565b92915050565b600080600060608486031215611cba57611cb9611c28565b5b6000611cc886828701611c56565b9350506020611cd986828701611c56565b9250506040611cea86828701611c8c565b9150509250925092565b611cfd81611c6b565b82525050565b611d0c81611c32565b82525050565b600060a082019050611d276000830188611cf4565b611d346020830187611d03565b611d416040830186611d03565b611d4e6060830185611cf4565b611d5b6080830184611cf4565b9695505050505050565b600060208284031215611d7b57611d7a611c28565b5b6000611d8984828501611c8c565b91505092915050565b600073ffffffffffffffffffffffffffffffffffffffff82169050919050565b6000611dbd82611d92565b9050919050565b611dcd81611db2565b82525050565b6000608082019050611de86000830187611dc4565b611df56020830186611d03565b611e026040830185611d03565b611e0f6060830184611cf4565b95945050505050565b611e2181611db2565b8114611e2c57600080fd5b50565b600081359050611e3e81611e18565b92915050565b600060208284031215611e5a57611e59611c28565b5b6000611e6884828501611e2f565b91505092915050565b600081519050919050565b600082825260208201905092915050565b60005b83811015611eab578082015181840152602081019050611e90565b60008484015250505050565b6000601f19601f8301169050919050565b6000611ed382611e71565b611edd8185611e7c565b9350611eed818560208601611e8d565b611ef681611eb7565b840191505092915050565b60008115159050919050565b611f1681611f01565b82525050565b6000610100820190508181036000830152611f37818b611ec8565b9050611f46602083018a611cf4565b611f536040830189611cf4565b611f606060830188611cf4565b611f6d6080830187611cf4565b611f7a60a0830186611cf4565b611f8760c0830185611dc4565b611f9460e0830184611f0d565b9998505050505050505050565b6000608082019050611fb66000830187611cf4565b611fc36020830186611cf4565b611fd06040830185611cf4565b611fdd6060830184611cf4565b95945050505050565b6000602082019050611ffb6000830184611f0d565b92915050565b600080fd5b600080fd5b7f4e487b7100000000000000000000000000000000000000000000000000000000600052604160045260246000fd5b61204382611eb7565b810181811067ffffffffffffffff821117156120625761206161200b565b5b80604052505050565b6000612075611c1e565b9050612081828261203a565b919050565b600067ffffffffffffffff8211156120a1576120a061200b565b5b6120aa82611eb7565b9050602081019050919050565b82818337600083830152505050565b60006120d96120d484612086565b61206b565b9050828152602081018484840111156120f5576120f4612006565b5b6121008482856120b7565b509392505050565b600082601f83011261211d5761211c612001565b5b813561212d8482602086016120c6565b91505092915050565b60006020828403121561214c5761214b611c28565b5b600082013567ffffffffffffffff81111561216a57612169611c2d565b5b61217684828501612108565b91505092915050565b600060208201905081810360008301526121998184611ec8565b905092915050565b60006040820190506121b66000830185611cf4565b6121c36020830184611cf4565b9392505050565b60006020820190506121df6000830184611dc4565b92915050565b6000610100820190508181036000830152612200818b611ec8565b905061220f602083018a611cf4565b61221c6040830189611cf4565b6122296060830188611cf4565b6122366080830187611cf4565b61224360a0830186611dc4565b61225060c0830185611cf4565b61225d60e0830184611f0d565b9998505050505050505050565b7f6e6f6e20636920736f6e6f2067696f6361746500000000000000000000000000600082015250565b60006122a0601383611e7c565b91506122ab8261226a565b602082019050919050565b600060208201905081810360008301526122cf81612293565b9050919050565b7f6e6f6e2065207061737361746f20616262617374616e7a612074656d706f207060008201527f657220706f74657220726967696f636172650000000000000000000000000000602082015250565b6000612332603283611e7c565b915061233d826122d6565b604082019050919050565b6000602082019050818103600083015261236181612325565b9050919050565b7f4e487b7100000000000000000000000000000000000000000000000000000000600052601160045260246000fd5b60006123a282611c6b565b91506123ad83611c6b565b92508282039050818111156123c5576123c4612368565b5b92915050565b7f4e487b7100000000000000000000000000000000000000000000000000000000600052603260045260246000fd5b6000819050919050565b61241561241082611c6b565b6123fa565b82525050565b6000819050919050565b6000819050919050565b61244061243b8261241b565b612425565b82525050565b60008160f81b9050919050565b600061245e82612446565b9050919050565b61247661247182611c32565b612453565b82525050565b60008160601b9050919050565b60006124948261247c565b9050919050565b60006124a682612489565b9050919050565b6124be6124b982611db2565b61249b565b82525050565b60006124d08289612404565b6020820191506124e08288612404565b6020820191506124f0828761242f565b6020820191506125008286612465565b60018201915061251082856124ad565b6014820191506125208284612465565b600182019150819050979650505050505050565b7f4e487b7100000000000000000000000000000000000000000000000000000000600052601260045260246000fd5b600061256e82611c6b565b915061257983611c6b565b92508261258957612588612534565b5b828206905092915050565b600061259f82611c6b565b91506125aa83611c6b565b92508282019050808211156125c2576125c1612368565b5b92915050565b60006125d382611c6b565b91506125de83611c6b565b92508282026125ec81611c6b565b9150828204841483151761260357612602612368565b5b5092915050565b600060208201905061261f6000830184611cf4565b92915050565b7f6e6f6e2068616920696e73657269746f206c61206769757374612067696f636160008201527f7461000000000000000000000000000000000000000000000000000000000000602082015250565b6000612681602283611e7c565b915061268c82612625565b604082019050919050565b600060208201905081810360008301526126b081612674565b9050919050565b7f636865206e756d65726f2064692067696f63617461206861692073656c657a6960008201527f6f6e61746f3f0000000000000000000000000000000000000000000000000000602082015250565b6000612713602683611e7c565b915061271e826126b7565b604082019050919050565b6000602082019050818103600083015261274281612706565b9050919050565b7f4e487b7100000000000000000000000000000000000000000000000000000000600052602260045260246000fd5b6000600282049050600182168061279057607f821691505b6020821081036127a3576127a2612749565b5b50919050565b7f6e6f6e2068616920736f6c6469206461207072656c6576617265000000000000600082015250565b60006127df601a83611e7c565b91506127ea826127a9565b602082019050919050565b6000602082019050818103600083015261280e816127d2565b9050919050565b7f6e6f6e2068616920616262617374616e7a6120736f6c64690000000000000000600082015250565b600061284b601883611e7c565b915061285682612815565b602082019050919050565b6000602082019050818103600083015261287a8161283e565b9050919050565b7f6e6f6e20736920736f6e6f20616262617374616e7a6120666f6e7369206e656c60008201527f20636f6e74726174746f20706572207061676172746900000000000000000000602082015250565b60006128dd603683611e7c565b91506128e882612881565b604082019050919050565b6000602082019050818103600083015261290c816128d0565b9050919050565b7f6e6f6e2070756f69207472617366657269726520756e61207175616e7469746160008201527f2070617269206120300000000000000000000000000000000000000000000000602082015250565b600061296f602983611e7c565b915061297a82612913565b604082019050919050565b6000602082019050818103600083015261299e81612962565b9050919050565b7f4c27696e646972697a7a6f206e6f6e20657369737465206e656c206d6170706960008201527f6e67206f206e6f6e20636f6d62616369616e6f00000000000000000000000000602082015250565b6000612a01603383611e7c565b9150612a0c826129a5565b604082019050919050565b60006020820190508181036000830152612a30816129f4565b9050919050565b60008190508160005260206000209050919050565b60006020601f8301049050919050565b600082821b905092915050565b600060088302612a997fffffffffffffffffffffffffffffffffffffffffffffffffffffffffffffffff82612a5c565b612aa38683612a5c565b95508019841693508086168417925050509392505050565b6000819050919050565b6000612ae0612adb612ad684611c6b565b612abb565b611c6b565b9050919050565b6000819050919050565b612afa83612ac5565b612b0e612b0682612ae7565b848454612a69565b825550505050565b600090565b612b23612b16565b612b2e818484612af1565b505050565b5b81811015612b5257612b47600082612b1b565b600181019050612b34565b5050565b601f821115612b9757612b6881612a37565b612b7184612a4c565b81016020851015612b80578190505b612b94612b8c85612a4c565b830182612b33565b50505b505050565b600082821c905092915050565b6000612bba60001984600802612b9c565b1980831691505092915050565b6000612bd38383612ba9565b9150826002028217905092915050565b612bec82611e71565b67ffffffffffffffff811115612c0557612c0461200b565b5b612c0f8254612778565b612c1a828285612b56565b600060209050601f831160018114612c4d5760008415612c3b578287015190505b612c458582612bc7565b865550612cad565b601f198416612c5b86612a37565b60005b82811015612c8357848901518255600182019150602085019450602081019050612c5e565b86831015612ca05784890151612c9c601f891682612ba9565b8355505b6001600288020188555050505b505050505050565b6000612cc082611c6b565b9150612ccb83611c6b565b925082612cdb57612cda612534565b5b828204905092915050565b7f4e6f6d6520696e73657269746f206e6f6e2076616c69646f0000000000000000600082015250565b6000612d1c601883611e7c565b9150612d2782612ce6565b602082019050919050565b60006020820190508181036000830152612d4b81612d0f565b905091905056fea2646970667358221220844b7c623188501a6469dc3af86769e85ab47877113f34e9f66ab9ede03cfb5f64736f6c63430008130033",
  "immutableReferences": {},
  "source": "// SPDX-License-Identifier: MIT\r\nimport \"./Profile.sol\";\r\npragma solidity ^0.8.19;\r\n\r\n\r\ncontract Roulette is Profile{\r\n  \r\n  uint betAmount;\r\n  uint necessaryBalance;\r\n  uint nextRoundTimestamp;\r\n  uint256 maxAmountAllowedInTheBank;\r\n  mapping (address => uint256) winnings;\r\n  uint8[] payouts;\r\n  uint8[] numberRange;\r\n  uint estratto;\r\n  \r\n  /*\r\n    BetTypes are as follow:\r\n      0: color\r\n      1: column\r\n      2: dozen\r\n      3: eighteen\r\n      4: modulus\r\n      5: number\r\n      \r\n    Depending on the BetType, number will be:\r\n      color: 0 for black, 1 for red\r\n      column: 0 for left, 1 for middle, 2 for right\r\n      dozen: 0 for first, 1 for second, 2 for third\r\n      eighteen: 0 for low, 1 for high\r\n      modulus: 0 for even, 1 for odd\r\n      number: number\r\n  */\r\n  \r\n  struct Bet {\r\n    address player;\r\n    uint8 betType;\r\n    uint8 number;\r\n    uint amount;\r\n  }\r\n  Bet[] public bets;\r\n  \r\n  constructor() payable {\r\n    necessaryBalance = 0;\r\n    nextRoundTimestamp = block.timestamp;\r\n    payouts = [1,2,2,1,1,35];//moltiplicatori giocate es nero paga x1 ma non scala la puntata\r\n    numberRange = [1,2,2,1,1,36];\r\n    betAmount = 10000000000000000; /* 0.01 ether */\r\n    maxAmountAllowedInTheBank = 2000000000000000000; /* 2 ether */\r\n  }\r\n\r\n  event RandomNumber(uint256 number);\r\n  \r\n  function getStatus() public view returns(uint, uint, uint, uint) {\r\n    return (\r\n      bets.length,             // number of active bets\r\n      bets.length * betAmount, // value of active bets\r\n      nextRoundTimestamp,      // when can we play again\r\n      winnings[msg.sender]     // winnings of player\r\n    ); \r\n  }\r\n\r\n\r\n\r\n  function bet(uint8 number, uint8 betType,uint256 am) payable public{\r\n\r\n    //prossimo upgrade far memorizzare pi bet\r\n    delete bets; //in modo da conservare un solo bet al suo interno\r\n\r\n    /* \r\n       A bet is valid when:\r\n       1 - the value of the bet is correct (=betAmount)\r\n       2 - betType is known (between 0 and 5)\r\n       3 - the option betted is valid (don't bet on 37!)\r\n       4 - the bank has sufficient funds to pay the bet\r\n     */\r\n      //require(msg.value == betAmount, \"non hai versato abbastanza fondi\");                               // 1\r\n    // require(amount>=10000000000000000,\"per ogni puntata almeno 0.01eth\");\r\n    require(betType >= 0 && betType <= 5, \"non hai inserito la giusta giocata\");                         // 2\r\n    require(number >= 0 && number <= numberRange[betType], \"che numero di giocata hai selezionato?\");        // 3\r\n   \r\n      // uint payoutForThisBet = payouts[betType] * msg.value; \r\n     //  uint provisionalBalance = necessaryBalance + payoutForThisBet;\r\n    // require(provisionalBalance < address(this).balance, \"la banca non ha abbastanza fondi da darti se vincessi\");           // 4\r\n     /* we are good to go */\r\n      //necessaryBalance += payoutForThisBet;\r\n\r\n\r\n    bets.push(Bet({\r\n      amount: am,\r\n      betType: betType,\r\n      player: msg.sender,\r\n      number: number\r\n    }));\r\n\r\n  }\r\n\r\n\r\n//prova per valutare la corretta esecuzione della funzione bet\r\n function getBet() public view returns(uint,uint8,uint8,uint,uint){\r\n  uint lung= bets.length;\r\n  Bet memory b= bets[lung-1];\r\n       return (\r\n        b.amount,\r\n        b.betType,\r\n        b.number,\r\n        lung,\r\n        address(this).balance\r\n       );\r\n    \r\n  }\r\n\r\n\r\n   function spinWheel() public {\r\n    /* are there any bets? */\r\n    require(bets.length > 0, \"non ci sono giocate\");\r\n    //require(msg.value > 10000000000000000 wei, \"non sono stati versati abbastanza fondi \");  \r\n    /* are we allowed to spin the wheel? */\r\n    require(block.timestamp > nextRoundTimestamp, \"non e passato abbastanza tempo per poter rigiocare\");\r\n    /* next time we are allowed to spin the wheel again */\r\n    nextRoundTimestamp = block.timestamp;\r\n    /* calculate 'random' number */\r\n    uint diff = block.difficulty;\r\n    bytes32 hash = blockhash(block.number-1);\r\n    Bet memory lb = bets[bets.length-1];\r\n    uint number = uint(keccak256(abi.encodePacked(block.timestamp, diff, hash, lb.betType, lb.player, lb.number))) % 37;\r\n\r\n    /* check every bet for this number */ \r\n    //for (uint i = 0; i < bets.length; i++) {\r\n     uint i=0; //prende la prima e unica puntata\r\n      bool won = false;\r\n      Bet memory b = bets[i];\r\n      betAmount=bets[i].amount;\r\n      \r\n      if (number == 0) {\r\n        won = (b.betType == 5 && b.number == 0);                   /* bet on 0 */\r\n      } else {\r\n        if (b.betType == 5) { \r\n          won = (b.number == number);                              /* bet on number */\r\n        } else if (b.betType == 4) {\r\n          if (b.number == 0) won = (number % 2 == 0);              /* bet on even */\r\n          if (b.number == 1) won = (number % 2 == 1);              /* bet on odd */\r\n        } else if (b.betType == 3) {            \r\n          if (b.number == 0) won = (number <= 18);                 /* bet on low 18s */\r\n          if (b.number == 1) won = (number >= 19);                 /* bet on high 18s */\r\n        } else if (b.betType == 2) {                               \r\n          if (b.number == 0) won = (number <= 12);                 /* bet on 1st dozen */\r\n          if (b.number == 1) won = (number > 12 && number <= 24);  /* bet on 2nd dozen */\r\n          if (b.number == 2) won = (number > 24);                  /* bet on 3rd dozen */\r\n        } else if (b.betType == 1) {               \r\n          if (b.number == 0) won = (number % 3 == 1);              /* bet on left column */\r\n          if (b.number == 1) won = (number % 3 == 2);              /* bet on middle column */\r\n          if (b.number == 2) won = (number % 3 == 0);              /* bet on right column */\r\n        } else if (b.betType == 0) {\r\n          if (b.number == 0) {                                     /* bet on black */\r\n            if (number <= 10 || (number >= 20 && number <= 28)) {\r\n              won = (number % 2 == 0);\r\n            } else {\r\n              won = (number % 2 == 1);\r\n            }\r\n          } else {                                                 /* bet on red */\r\n            if (number <= 10 || (number >= 20 && number <= 28)) {\r\n              won = (number % 2 == 1);\r\n            } else {\r\n              won = (number % 2 == 0);\r\n            }\r\n          }\r\n        }\r\n      }\r\n       addToPlayer[b.player].totalCashFlow +=betAmount;\r\n\r\n\r\n      /* if winning bet, add to player winnings balance */\r\n      if (won) {\r\n        //aggiungiamo il saldo all utente\r\n       // winnings[b.player] += betAmount * payouts[b.betType];\r\n        //aggiorniamo le giocate del giocatore;\r\n        addToPlayer[b.player].game +=1;\r\n        addToPlayer[b.player].gameWin +=1;\r\n        addToPlayer[b.player].cashInBank += betAmount * payouts[b.betType];\r\n        if((betAmount * payouts[b.betType])+ betAmount > addToPlayer[b.player].maxWin){\r\n          addToPlayer[b.player].maxWin = (betAmount * payouts[b.betType])+betAmount;\r\n        }\r\n      }else{\r\n        //togliamo saldo all'utente\r\n        addToPlayer[b.player].cashInBank = addToPlayer[b.player].cashInBank - betAmount;\r\n        addToPlayer[b.player].game +=1;\r\n      }\r\n   // }\r\n    /* delete all bets */\r\n    //bets.length = 0;\r\n   delete bets;\r\n\r\n    /* reset necessaryBalance */\r\n    necessaryBalance = 0;\r\n\r\n    /* returns 'random' number to UI */\r\n    emit RandomNumber(number);\r\n    //return number;\r\n  }\r\n\r\n\r\n  /*\r\n\r\n  function cashOut() public {\r\n    address payable player = payable(msg.sender);\r\n    uint256 amount = winnings[player];\r\n    require(amount > 0);\r\n    require(amount <= address(this).balance);\r\n    winnings[player] = 0;\r\n    player.transfer(amount);\r\n  }\r\n  \r\n  function takeProfits() internal {\r\n    uint amount = address(this).balance - maxAmountAllowedInTheBank;\r\n    if (amount > 0) creator.transfer(amount);\r\n  }\r\n  \r\n  function creatorKill() public {\r\n    require(msg.sender == creator);\r\n    \r\n    creator.transfer(address(this).balance);\r\n    //selfdestruct(creator);\r\n  }\r\n  */\r\n \r\n}",
  "sourcePath": "/Users/mac_marco/BlockBet/contracts/Roulette.sol",
  "compiler": {
    "name": "solc",
    "version": "0.8.19+commit.7dd6d404.Emscripten.clang"
  },
  "schemaVersion": "3.4.16",
  "updatedAt": "2024-02-15T14:31:39.745Z",
  "networkType": "ethereum",
  "devdoc": {
    "kind": "dev",
    "methods": {},
    "version": 1
  },
  "userdoc": {
    "kind": "user",
    "methods": {},
    "version": 1
  }
}