{
  "contractName": "Roulette",
  "abi": [
    {
      "inputs": [],
      "stateMutability": "payable",
      "type": "constructor",
      "payable": true
    },
    {
      "anonymous": false,
      "inputs": [
        {
          "indexed": false,
          "internalType": "uint256",
          "name": "number",
          "type": "uint256"
        }
      ],
      "name": "RandomNumber",
      "type": "event"
    },
    {
      "anonymous": false,
      "inputs": [
        {
          "indexed": false,
          "internalType": "string",
          "name": "",
          "type": "string"
        },
        {
          "indexed": false,
          "internalType": "address",
          "name": "",
          "type": "address"
        }
      ],
      "name": "existingPlayer",
      "type": "event"
    },
    {
      "anonymous": false,
      "inputs": [
        {
          "indexed": false,
          "internalType": "string",
          "name": "",
          "type": "string"
        },
        {
          "indexed": false,
          "internalType": "address",
          "name": "",
          "type": "address"
        },
        {
          "indexed": false,
          "internalType": "uint256",
          "name": "",
          "type": "uint256"
        }
      ],
      "name": "newPlayer",
      "type": "event"
    },
    {
      "inputs": [],
      "name": "addEther",
      "outputs": [
        {
          "internalType": "bool",
          "name": "",
          "type": "bool"
        }
      ],
      "stateMutability": "payable",
      "type": "function",
      "payable": true
    },
    {
      "inputs": [
        {
          "internalType": "string",
          "name": "_name",
          "type": "string"
        }
      ],
      "name": "addPlayer",
      "outputs": [
        {
          "internalType": "address",
          "name": "",
          "type": "address"
        }
      ],
      "stateMutability": "payable",
      "type": "function",
      "payable": true
    },
    {
      "inputs": [
        {
          "internalType": "address",
          "name": "",
          "type": "address"
        }
      ],
      "name": "addToPlayer",
      "outputs": [
        {
          "internalType": "string",
          "name": "username",
          "type": "string"
        },
        {
          "internalType": "uint256",
          "name": "game",
          "type": "uint256"
        },
        {
          "internalType": "uint256",
          "name": "gameWin",
          "type": "uint256"
        },
        {
          "internalType": "uint256",
          "name": "maxWin",
          "type": "uint256"
        },
        {
          "internalType": "uint256",
          "name": "totalCashFlow",
          "type": "uint256"
        },
        {
          "internalType": "uint256",
          "name": "cashInBank",
          "type": "uint256"
        },
        {
          "internalType": "address",
          "name": "addPlayer",
          "type": "address"
        },
        {
          "internalType": "bool",
          "name": "exist",
          "type": "bool"
        }
      ],
      "stateMutability": "view",
      "type": "function",
      "constant": true
    },
    {
      "inputs": [
        {
          "internalType": "uint256",
          "name": "",
          "type": "uint256"
        }
      ],
      "name": "bets",
      "outputs": [
        {
          "internalType": "address",
          "name": "player",
          "type": "address"
        },
        {
          "internalType": "uint8",
          "name": "betType",
          "type": "uint8"
        },
        {
          "internalType": "uint8",
          "name": "number",
          "type": "uint8"
        },
        {
          "internalType": "uint256",
          "name": "amount",
          "type": "uint256"
        }
      ],
      "stateMutability": "view",
      "type": "function",
      "constant": true
    },
    {
      "inputs": [
        {
          "internalType": "uint256",
          "name": "x",
          "type": "uint256"
        }
      ],
      "name": "cashOut",
      "outputs": [],
      "stateMutability": "nonpayable",
      "type": "function"
    },
    {
      "inputs": [],
      "name": "getStato",
      "outputs": [
        {
          "internalType": "uint256",
          "name": "",
          "type": "uint256"
        },
        {
          "internalType": "uint256",
          "name": "",
          "type": "uint256"
        }
      ],
      "stateMutability": "view",
      "type": "function",
      "constant": true
    },
    {
      "inputs": [],
      "name": "getStatoUtente",
      "outputs": [
        {
          "internalType": "string",
          "name": "",
          "type": "string"
        },
        {
          "internalType": "uint256",
          "name": "",
          "type": "uint256"
        },
        {
          "internalType": "uint256",
          "name": "",
          "type": "uint256"
        },
        {
          "internalType": "uint256",
          "name": "",
          "type": "uint256"
        },
        {
          "internalType": "uint256",
          "name": "",
          "type": "uint256"
        },
        {
          "internalType": "address",
          "name": "",
          "type": "address"
        },
        {
          "internalType": "uint256",
          "name": "",
          "type": "uint256"
        },
        {
          "internalType": "bool",
          "name": "",
          "type": "bool"
        }
      ],
      "stateMutability": "view",
      "type": "function",
      "constant": true
    },
    {
      "inputs": [
        {
          "internalType": "address",
          "name": "",
          "type": "address"
        }
      ],
      "name": "indirizzoEsiste",
      "outputs": [
        {
          "internalType": "bool",
          "name": "",
          "type": "bool"
        }
      ],
      "stateMutability": "view",
      "type": "function",
      "constant": true
    },
    {
      "inputs": [
        {
          "internalType": "string",
          "name": "_username",
          "type": "string"
        }
      ],
      "name": "setUsername",
      "outputs": [
        {
          "internalType": "string",
          "name": "",
          "type": "string"
        }
      ],
      "stateMutability": "nonpayable",
      "type": "function"
    },
    {
      "inputs": [],
      "name": "getStatus",
      "outputs": [
        {
          "internalType": "uint256",
          "name": "",
          "type": "uint256"
        },
        {
          "internalType": "uint256",
          "name": "",
          "type": "uint256"
        },
        {
          "internalType": "uint256",
          "name": "",
          "type": "uint256"
        },
        {
          "internalType": "uint256",
          "name": "",
          "type": "uint256"
        }
      ],
      "stateMutability": "view",
      "type": "function",
      "constant": true
    },
    {
      "inputs": [
        {
          "internalType": "uint8",
          "name": "number",
          "type": "uint8"
        },
        {
          "internalType": "uint8",
          "name": "betType",
          "type": "uint8"
        },
        {
          "internalType": "uint256",
          "name": "am",
          "type": "uint256"
        }
      ],
      "name": "bet",
      "outputs": [],
      "stateMutability": "payable",
      "type": "function",
      "payable": true
    },
    {
      "inputs": [],
      "name": "getBet",
      "outputs": [
        {
          "internalType": "uint256",
          "name": "",
          "type": "uint256"
        },
        {
          "internalType": "uint8",
          "name": "",
          "type": "uint8"
        },
        {
          "internalType": "uint8",
          "name": "",
          "type": "uint8"
        },
        {
          "internalType": "uint256",
          "name": "",
          "type": "uint256"
        },
        {
          "internalType": "uint256",
          "name": "",
          "type": "uint256"
        }
      ],
      "stateMutability": "view",
      "type": "function",
      "constant": true
    },
    {
      "inputs": [],
      "name": "getNumber",
      "outputs": [
        {
          "internalType": "uint256",
          "name": "",
          "type": "uint256"
        }
      ],
      "stateMutability": "view",
      "type": "function",
      "constant": true
    },
    {
      "inputs": [],
      "name": "spinWheel",
      "outputs": [],
      "stateMutability": "nonpayable",
      "type": "function"
    }
  ],
  "bytecode": "0x6080604052670de0b6b3a764000060015530600260006101000a81548173ffffffffffffffffffffffffffffffffffffffff021916908373ffffffffffffffffffffffffffffffffffffffff160217905550336000806101000a81548173ffffffffffffffffffffffffffffffffffffffff021916908373ffffffffffffffffffffffffffffffffffffffff1602179055506040518061010001604052806040518060400160405280600781526020017f5f6164696c5f32000000000000000000000000000000000000000000000000008152508152602001600081526020016000815260200160008152602001600081526020016000815260200160008054906101000a900473ffffffffffffffffffffffffffffffffffffffff1673ffffffffffffffffffffffffffffffffffffffff16815260200160011515815250600360008060009054906101000a900473ffffffffffffffffffffffffffffffffffffffff1673ffffffffffffffffffffffffffffffffffffffff1673ffffffffffffffffffffffffffffffffffffffff1681526020019081526020016000206000820151816000019081620001b591906200067b565b506020820151816001015560408201518160020155606082015181600301556080820151816004015560a0820151816005015560c08201518160060160006101000a81548173ffffffffffffffffffffffffffffffffffffffff021916908373ffffffffffffffffffffffffffffffffffffffff16021790555060e08201518160060160146101000a81548160ff0219169083151502179055509050506000600681905550426007819055506040518060c00160405280600160ff168152602001600260ff168152602001600260ff168152602001600160ff168152602001600160ff168152602001602360ff16815250600a906006620002b892919062000334565b506040518060c00160405280600160ff168152602001600260ff168152602001600260ff168152602001600160ff168152602001600160ff168152602001602460ff16815250600b9060066200031092919062000334565b50662386f26fc10000600581905550671bc16d674ec8000060088190555062000762565b82805482825590600052602060002090601f01602090048101928215620003cf5791602002820160005b838211156200039e57835183826101000a81548160ff021916908360ff16021790555092602001926001016020816000010492830192600103026200035e565b8015620003cd5782816101000a81549060ff02191690556001016020816000010492830192600103026200039e565b505b509050620003de9190620003e2565b5090565b5b80821115620003fd576000816000905550600101620003e3565b5090565b600081519050919050565b7f4e487b7100000000000000000000000000000000000000000000000000000000600052604160045260246000fd5b7f4e487b7100000000000000000000000000000000000000000000000000000000600052602260045260246000fd5b600060028204905060018216806200048357607f821691505b6020821081036200049957620004986200043b565b5b50919050565b60008190508160005260206000209050919050565b60006020601f8301049050919050565b600082821b905092915050565b600060088302620005037fffffffffffffffffffffffffffffffffffffffffffffffffffffffffffffffff82620004c4565b6200050f8683620004c4565b95508019841693508086168417925050509392505050565b6000819050919050565b6000819050919050565b60006200055c62000556620005508462000527565b62000531565b62000527565b9050919050565b6000819050919050565b62000578836200053b565b62000590620005878262000563565b848454620004d1565b825550505050565b600090565b620005a762000598565b620005b48184846200056d565b505050565b5b81811015620005dc57620005d06000826200059d565b600181019050620005ba565b5050565b601f8211156200062b57620005f5816200049f565b6200060084620004b4565b8101602085101562000610578190505b620006286200061f85620004b4565b830182620005b9565b50505b505050565b600082821c905092915050565b6000620006506000198460080262000630565b1980831691505092915050565b60006200066b83836200063d565b9150826002028217905092915050565b620006868262000401565b67ffffffffffffffff811115620006a257620006a16200040c565b5b620006ae82546200046a565b620006bb828285620005e0565b600060209050601f831160018114620006f35760008415620006de578287015190505b620006ea85826200065d565b8655506200075a565b601f19841662000703866200049f565b60005b828110156200072d5784890151825560018201915060208501945060208101905062000706565b868310156200074d578489015162000749601f8916826200063d565b8355505b6001600288020188555050505b505050505050565b612c5780620007726000396000f3fe6080604052600436106100dd5760003560e01c80638894dd2b1161007f578063f2c9ecd811610059578063f2c9ecd8146102b7578063f3bd38fa146102e2578063f77e8b831461030e578063fbb83ddb1461033e576100dd565b80638894dd2b1461021f578063cf108a6b1461023d578063ed59313a1461027a576100dd565b806322af00fa116100bb57806322af00fa1461014457806347478d52146101845780634e69d560146101c85780635c7b79f5146101f6576100dd565b806315ecef92146100e257806318ab30e6146100f957806320835e8c14610115575b600080fd5b3480156100ee57600080fd5b506100f7610370565b005b610113600480360381019061010e9190611b70565b610bbf565b005b34801561012157600080fd5b5061012a610da7565b60405161013b959493929190611be1565b60405180910390f35b34801561015057600080fd5b5061016b60048036038101906101669190611c34565b610eb3565b60405161017b9493929190611ca2565b60405180910390f35b34801561019057600080fd5b506101ab60048036038101906101a69190611d13565b610f2d565b6040516101bf989796959493929190611deb565b60405180910390f35b3480156101d457600080fd5b506101dd61102a565b6040516101ed9493929190611e70565b60405180910390f35b34801561020257600080fd5b5061021d60048036038101906102189190611c34565b61109a565b005b6102276112d2565b6040516102349190611eb5565b60405180910390f35b34801561024957600080fd5b50610264600480360381019061025f9190611d13565b611376565b6040516102719190611eb5565b60405180910390f35b34801561028657600080fd5b506102a1600480360381019061029c9190612005565b611396565b6040516102ae919061204e565b60405180910390f35b3480156102c357600080fd5b506102cc6114c6565b6040516102d99190612070565b60405180910390f35b3480156102ee57600080fd5b506102f76114d0565b60405161030592919061208b565b60405180910390f35b61032860048036038101906103239190612005565b6114f2565b60405161033591906120b4565b60405180910390f35b34801561034a57600080fd5b50610353611694565b6040516103679897969594939291906120cf565b60405180910390f35b6000600d80549050116103b8576040517f08c379a00000000000000000000000000000000000000000000000000000000081526004016103af906121a0565b60405180910390fd5b60075442116103fc576040517f08c379a00000000000000000000000000000000000000000000000000000000081526004016103f390612232565b60405180910390fd5b42600781905550600044905060006001436104179190612281565b4090506000600d6001600d805490506104309190612281565b81548110610441576104406122b5565b5b90600052602060002090600202016040518060800160405290816000820160009054906101000a900473ffffffffffffffffffffffffffffffffffffffff1673ffffffffffffffffffffffffffffffffffffffff1673ffffffffffffffffffffffffffffffffffffffff1681526020016000820160149054906101000a900460ff1660ff1660ff1681526020016000820160159054906101000a900460ff1660ff1660ff168152602001600182015481525050905060006025428585856020015186600001518760400151604051602001610521969594939291906123ae565b6040516020818303038152906040528051906020012060001c610544919061244d565b905060006001600d8054905061055a9190612281565b9050600080600d8381548110610573576105726122b5565b5b90600052602060002090600202016040518060800160405290816000820160009054906101000a900473ffffffffffffffffffffffffffffffffffffffff1673ffffffffffffffffffffffffffffffffffffffff1673ffffffffffffffffffffffffffffffffffffffff1681526020016000820160149054906101000a900460ff1660ff1660ff1681526020016000820160159054906101000a900460ff1660ff1660ff1681526020016001820154815250509050600d838154811061063c5761063b6122b5565b5b90600052602060002090600202016001015460058190555060008403610681576005816020015160ff1614801561067a57506000816040015160ff16145b9150610b69565b6005816020015160ff16036106a15783816040015160ff161491506108dd565b6004816020015160ff16036106f9576000816040015160ff16036106d25760006002856106ce919061244d565b1491505b6001816040015160ff16036106f45760016002856106f0919061244d565b1491505b6108dc565b6003816020015160ff160361073b576000816040015160ff160361071f57601284111591505b6001816040015160ff160361073657601384101591505b6108db565b6002816020015160ff160361079f576000816040015160ff160361076157600c84111591505b6001816040015160ff160361078457600c84118015610781575060188411155b91505b6002816040015160ff160361079a576018841191505b6108da565b6001816020015160ff1603610819576000816040015160ff16036107d05760016003856107cc919061244d565b1491505b6001816040015160ff16036107f25760026003856107ee919061244d565b1491505b6002816040015160ff1603610814576000600385610810919061244d565b1491505b6108d9565b6000816020015160ff16036108d8576000816040015160ff160361088957600a841115806108555750601484101580156108545750601c8411155b5b15610871576000600285610869919061244d565b149150610884565b6001600285610880919061244d565b1491505b6108d7565b600a841115806108a75750601484101580156108a65750601c8411155b5b156108c35760016002856108bb919061244d565b1491506108d6565b60006002856108d2919061244d565b1491505b5b5b5b5b5b5b5b60055460036000836000015173ffffffffffffffffffffffffffffffffffffffff1673ffffffffffffffffffffffffffffffffffffffff1681526020019081526020016000206004016000828254610935919061247e565b925050819055508115610aaa57600160036000836000015173ffffffffffffffffffffffffffffffffffffffff1673ffffffffffffffffffffffffffffffffffffffff1681526020019081526020016000206001016000828254610999919061247e565b92505081905550600160036000836000015173ffffffffffffffffffffffffffffffffffffffff1673ffffffffffffffffffffffffffffffffffffffff16815260200190815260200160002060020160008282546109f7919061247e565b92505081905550600a816020015160ff1681548110610a1957610a186122b5565b5b90600052602060002090602091828204019190069054906101000a900460ff1660ff16600554610a4991906124b2565b60036000836000015173ffffffffffffffffffffffffffffffffffffffff1673ffffffffffffffffffffffffffffffffffffffff1681526020019081526020016000206005016000828254610a9e919061247e565b92505081905550610b68565b60055460036000836000015173ffffffffffffffffffffffffffffffffffffffff1673ffffffffffffffffffffffffffffffffffffffff1681526020019081526020016000206005016000828254610b029190612281565b92505081905550600160036000836000015173ffffffffffffffffffffffffffffffffffffffff1673ffffffffffffffffffffffffffffffffffffffff1681526020019081526020016000206001016000828254610b60919061247e565b925050819055505b5b600d6000610b779190611a5b565b60006006819055507fec6cdc8e735e4069f6e89062582f3e5532a8e71373e7ef2962fa916cf2af21f284604051610bae9190612070565b60405180910390a150505050505050565b60008260ff1610158015610bd7575060058260ff1611155b610c16576040517f08c379a0000000000000000000000000000000000000000000000000000000008152600401610c0d90612566565b60405180910390fd5b60008360ff1610158015610c665750600b8260ff1681548110610c3c57610c3b6122b5565b5b90600052602060002090602091828204019190069054906101000a900460ff1660ff168360ff1611155b610ca5576040517f08c379a0000000000000000000000000000000000000000000000000000000008152600401610c9c906125f8565b60405180910390fd5b600d60405180608001604052803373ffffffffffffffffffffffffffffffffffffffff1681526020018460ff1681526020018560ff16815260200183815250908060018154018082558091505060019003906000526020600020906002020160009091909190915060008201518160000160006101000a81548173ffffffffffffffffffffffffffffffffffffffff021916908373ffffffffffffffffffffffffffffffffffffffff16021790555060208201518160000160146101000a81548160ff021916908360ff16021790555060408201518160000160156101000a81548160ff021916908360ff160217905550606082015181600101555050505050565b600080600080600080600d8054905090506000600d600183610dc99190612281565b81548110610dda57610dd96122b5565b5b90600052602060002090600202016040518060800160405290816000820160009054906101000a900473ffffffffffffffffffffffffffffffffffffffff1673ffffffffffffffffffffffffffffffffffffffff1673ffffffffffffffffffffffffffffffffffffffff1681526020016000820160149054906101000a900460ff1660ff1660ff1681526020016000820160159054906101000a900460ff1660ff1660ff168152602001600182015481525050905080606001518160200151826040015184479650965096509650965050509091929394565b600d8181548110610ec357600080fd5b90600052602060002090600202016000915090508060000160009054906101000a900473ffffffffffffffffffffffffffffffffffffffff16908060000160149054906101000a900460ff16908060000160159054906101000a900460ff16908060010154905084565b6003602052806000526040600020600091509050806000018054610f5090612647565b80601f0160208091040260200160405190810160405280929190818152602001828054610f7c90612647565b8015610fc95780601f10610f9e57610100808354040283529160200191610fc9565b820191906000526020600020905b815481529060010190602001808311610fac57829003601f168201915b5050505050908060010154908060020154908060030154908060040154908060050154908060060160009054906101000a900473ffffffffffffffffffffffffffffffffffffffff16908060060160149054906101000a900460ff16905088565b600080600080600d80549050600554600d8054905061104991906124b2565b600754600960003373ffffffffffffffffffffffffffffffffffffffff1673ffffffffffffffffffffffffffffffffffffffff16815260200190815260200160002054935093509350935090919293565b6000600360003373ffffffffffffffffffffffffffffffffffffffff1673ffffffffffffffffffffffffffffffffffffffff168152602001908152602001600020600501541161111f576040517f08c379a0000000000000000000000000000000000000000000000000000000008152600401611116906126c4565b60405180910390fd5b80600360003373ffffffffffffffffffffffffffffffffffffffff1673ffffffffffffffffffffffffffffffffffffffff1681526020019081526020016000206005015410156111a4576040517f08c379a000000000000000000000000000000000000000000000000000000000815260040161119b90612730565b60405180910390fd5b47600360003373ffffffffffffffffffffffffffffffffffffffff1673ffffffffffffffffffffffffffffffffffffffff168152602001908152602001600020600501541115611229576040517f08c379a0000000000000000000000000000000000000000000000000000000008152600401611220906127c2565b60405180910390fd5b600033905081600360003373ffffffffffffffffffffffffffffffffffffffff1673ffffffffffffffffffffffffffffffffffffffff16815260200190815260200160002060050160008282546112809190612281565b925050819055508073ffffffffffffffffffffffffffffffffffffffff166108fc839081150290604051600060405180830381858888f193505050501580156112cd573d6000803e3d6000fd5b505050565b6000803411611316576040517f08c379a000000000000000000000000000000000000000000000000000000000815260040161130d90612854565b60405180910390fd5b34600360003373ffffffffffffffffffffffffffffffffffffffff1673ffffffffffffffffffffffffffffffffffffffff1681526020019081526020016000206005016000828254611368919061247e565b925050819055506001905090565b60046020528060005260406000206000915054906101000a900460ff1681565b60603373ffffffffffffffffffffffffffffffffffffffff16600360003373ffffffffffffffffffffffffffffffffffffffff1673ffffffffffffffffffffffffffffffffffffffff16815260200190815260200160002060060160009054906101000a900473ffffffffffffffffffffffffffffffffffffffff1673ffffffffffffffffffffffffffffffffffffffff1614611468576040517f08c379a000000000000000000000000000000000000000000000000000000000815260040161145f906128e6565b60405180910390fd5b600082905080600360003373ffffffffffffffffffffffffffffffffffffffff1673ffffffffffffffffffffffffffffffffffffffff16815260200190815260200160002060000190816114bc9190612ab2565b5080915050919050565b6000600c54905090565b600080670de0b6b3a7640000476114e79190612b84565b600154915091509091565b600080825111611537576040517f08c379a000000000000000000000000000000000000000000000000000000000815260040161152e90612c01565b60405180910390fd5b6000339050600060405180610100016040528085815260200160008152602001600081526020016000815260200160008152602001600081526020018373ffffffffffffffffffffffffffffffffffffffff16815260200160011515815250905080600360008473ffffffffffffffffffffffffffffffffffffffff1673ffffffffffffffffffffffffffffffffffffffff16815260200190815260200160002060008201518160000190816115ed9190612ab2565b506020820151816001015560408201518160020155606082015181600301556080820151816004015560a0820151816005015560c08201518160060160006101000a81548173ffffffffffffffffffffffffffffffffffffffff021916908373ffffffffffffffffffffffffffffffffffffffff16021790555060e08201518160060160146101000a81548160ff0219169083151502179055509050508192505050919050565b606060008060008060008060003373ffffffffffffffffffffffffffffffffffffffff16600360003373ffffffffffffffffffffffffffffffffffffffff1673ffffffffffffffffffffffffffffffffffffffff16815260200190815260200160002060060160009054906101000a900473ffffffffffffffffffffffffffffffffffffffff1673ffffffffffffffffffffffffffffffffffffffff1614611771576040517f08c379a0000000000000000000000000000000000000000000000000000000008152600401611768906128e6565b60405180910390fd5b600360003373ffffffffffffffffffffffffffffffffffffffff1673ffffffffffffffffffffffffffffffffffffffff168152602001908152602001600020600001600360003373ffffffffffffffffffffffffffffffffffffffff1673ffffffffffffffffffffffffffffffffffffffff16815260200190815260200160002060010154600360003373ffffffffffffffffffffffffffffffffffffffff1673ffffffffffffffffffffffffffffffffffffffff16815260200190815260200160002060030154600360003373ffffffffffffffffffffffffffffffffffffffff1673ffffffffffffffffffffffffffffffffffffffff16815260200190815260200160002060040154600360003373ffffffffffffffffffffffffffffffffffffffff1673ffffffffffffffffffffffffffffffffffffffff16815260200190815260200160002060050154600360003373ffffffffffffffffffffffffffffffffffffffff1673ffffffffffffffffffffffffffffffffffffffff16815260200190815260200160002060060160009054906101000a900473ffffffffffffffffffffffffffffffffffffffff16600360003373ffffffffffffffffffffffffffffffffffffffff1673ffffffffffffffffffffffffffffffffffffffff16815260200190815260200160002060020154600360003373ffffffffffffffffffffffffffffffffffffffff1673ffffffffffffffffffffffffffffffffffffffff16815260200190815260200160002060060160149054906101000a900460ff168780546119c190612647565b80601f01602080910402602001604051908101604052809291908181526020018280546119ed90612647565b8015611a3a5780601f10611a0f57610100808354040283529160200191611a3a565b820191906000526020600020905b815481529060010190602001808311611a1d57829003601f168201915b50505050509750975097509750975097509750975097509091929394959697565b5080546000825560020290600052602060002090810190611a7c9190611a7f565b50565b5b80821115611ae957600080820160006101000a81549073ffffffffffffffffffffffffffffffffffffffff02191690556000820160146101000a81549060ff02191690556000820160156101000a81549060ff0219169055600182016000905550600201611a80565b5090565b6000604051905090565b600080fd5b600080fd5b600060ff82169050919050565b611b1781611b01565b8114611b2257600080fd5b50565b600081359050611b3481611b0e565b92915050565b6000819050919050565b611b4d81611b3a565b8114611b5857600080fd5b50565b600081359050611b6a81611b44565b92915050565b600080600060608486031215611b8957611b88611af7565b5b6000611b9786828701611b25565b9350506020611ba886828701611b25565b9250506040611bb986828701611b5b565b9150509250925092565b611bcc81611b3a565b82525050565b611bdb81611b01565b82525050565b600060a082019050611bf66000830188611bc3565b611c036020830187611bd2565b611c106040830186611bd2565b611c1d6060830185611bc3565b611c2a6080830184611bc3565b9695505050505050565b600060208284031215611c4a57611c49611af7565b5b6000611c5884828501611b5b565b91505092915050565b600073ffffffffffffffffffffffffffffffffffffffff82169050919050565b6000611c8c82611c61565b9050919050565b611c9c81611c81565b82525050565b6000608082019050611cb76000830187611c93565b611cc46020830186611bd2565b611cd16040830185611bd2565b611cde6060830184611bc3565b95945050505050565b611cf081611c81565b8114611cfb57600080fd5b50565b600081359050611d0d81611ce7565b92915050565b600060208284031215611d2957611d28611af7565b5b6000611d3784828501611cfe565b91505092915050565b600081519050919050565b600082825260208201905092915050565b60005b83811015611d7a578082015181840152602081019050611d5f565b60008484015250505050565b6000601f19601f8301169050919050565b6000611da282611d40565b611dac8185611d4b565b9350611dbc818560208601611d5c565b611dc581611d86565b840191505092915050565b60008115159050919050565b611de581611dd0565b82525050565b6000610100820190508181036000830152611e06818b611d97565b9050611e15602083018a611bc3565b611e226040830189611bc3565b611e2f6060830188611bc3565b611e3c6080830187611bc3565b611e4960a0830186611bc3565b611e5660c0830185611c93565b611e6360e0830184611ddc565b9998505050505050505050565b6000608082019050611e856000830187611bc3565b611e926020830186611bc3565b611e9f6040830185611bc3565b611eac6060830184611bc3565b95945050505050565b6000602082019050611eca6000830184611ddc565b92915050565b600080fd5b600080fd5b7f4e487b7100000000000000000000000000000000000000000000000000000000600052604160045260246000fd5b611f1282611d86565b810181811067ffffffffffffffff82111715611f3157611f30611eda565b5b80604052505050565b6000611f44611aed565b9050611f508282611f09565b919050565b600067ffffffffffffffff821115611f7057611f6f611eda565b5b611f7982611d86565b9050602081019050919050565b82818337600083830152505050565b6000611fa8611fa384611f55565b611f3a565b905082815260208101848484011115611fc457611fc3611ed5565b5b611fcf848285611f86565b509392505050565b600082601f830112611fec57611feb611ed0565b5b8135611ffc848260208601611f95565b91505092915050565b60006020828403121561201b5761201a611af7565b5b600082013567ffffffffffffffff81111561203957612038611afc565b5b61204584828501611fd7565b91505092915050565b600060208201905081810360008301526120688184611d97565b905092915050565b60006020820190506120856000830184611bc3565b92915050565b60006040820190506120a06000830185611bc3565b6120ad6020830184611bc3565b9392505050565b60006020820190506120c96000830184611c93565b92915050565b60006101008201905081810360008301526120ea818b611d97565b90506120f9602083018a611bc3565b6121066040830189611bc3565b6121136060830188611bc3565b6121206080830187611bc3565b61212d60a0830186611c93565b61213a60c0830185611bc3565b61214760e0830184611ddc565b9998505050505050505050565b7f6e6f6e20636920736f6e6f2067696f6361746500000000000000000000000000600082015250565b600061218a601383611d4b565b915061219582612154565b602082019050919050565b600060208201905081810360008301526121b98161217d565b9050919050565b7f6e6f6e2065207061737361746f20616262617374616e7a612074656d706f207060008201527f657220706f74657220726967696f636172650000000000000000000000000000602082015250565b600061221c603283611d4b565b9150612227826121c0565b604082019050919050565b6000602082019050818103600083015261224b8161220f565b9050919050565b7f4e487b7100000000000000000000000000000000000000000000000000000000600052601160045260246000fd5b600061228c82611b3a565b915061229783611b3a565b92508282039050818111156122af576122ae612252565b5b92915050565b7f4e487b7100000000000000000000000000000000000000000000000000000000600052603260045260246000fd5b6000819050919050565b6122ff6122fa82611b3a565b6122e4565b82525050565b6000819050919050565b6000819050919050565b61232a61232582612305565b61230f565b82525050565b60008160f81b9050919050565b600061234882612330565b9050919050565b61236061235b82611b01565b61233d565b82525050565b60008160601b9050919050565b600061237e82612366565b9050919050565b600061239082612373565b9050919050565b6123a86123a382611c81565b612385565b82525050565b60006123ba82896122ee565b6020820191506123ca82886122ee565b6020820191506123da8287612319565b6020820191506123ea828661234f565b6001820191506123fa8285612397565b60148201915061240a828461234f565b600182019150819050979650505050505050565b7f4e487b7100000000000000000000000000000000000000000000000000000000600052601260045260246000fd5b600061245882611b3a565b915061246383611b3a565b9250826124735761247261241e565b5b828206905092915050565b600061248982611b3a565b915061249483611b3a565b92508282019050808211156124ac576124ab612252565b5b92915050565b60006124bd82611b3a565b91506124c883611b3a565b92508282026124d681611b3a565b915082820484148315176124ed576124ec612252565b5b5092915050565b7f6e6f6e2068616920696e73657269746f206c61206769757374612067696f636160008201527f7461000000000000000000000000000000000000000000000000000000000000602082015250565b6000612550602283611d4b565b915061255b826124f4565b604082019050919050565b6000602082019050818103600083015261257f81612543565b9050919050565b7f636865206e756d65726f2064692067696f63617461206861692073656c657a6960008201527f6f6e61746f3f0000000000000000000000000000000000000000000000000000602082015250565b60006125e2602683611d4b565b91506125ed82612586565b604082019050919050565b60006020820190508181036000830152612611816125d5565b9050919050565b7f4e487b7100000000000000000000000000000000000000000000000000000000600052602260045260246000fd5b6000600282049050600182168061265f57607f821691505b60208210810361267257612671612618565b5b50919050565b7f6e6f6e2068616920736f6c6469206461207072656c6576617265000000000000600082015250565b60006126ae601a83611d4b565b91506126b982612678565b602082019050919050565b600060208201905081810360008301526126dd816126a1565b9050919050565b7f6e6f6e2068616920616262617374616e7a6120736f6c64690000000000000000600082015250565b600061271a601883611d4b565b9150612725826126e4565b602082019050919050565b600060208201905081810360008301526127498161270d565b9050919050565b7f6e6f6e20736920736f6e6f20616262617374616e7a6120666f6e7369206e656c60008201527f20636f6e74726174746f20706572207061676172746900000000000000000000602082015250565b60006127ac603683611d4b565b91506127b782612750565b604082019050919050565b600060208201905081810360008301526127db8161279f565b9050919050565b7f6e6f6e2070756f69207472617366657269726520756e61207175616e7469746160008201527f2070617269206120300000000000000000000000000000000000000000000000602082015250565b600061283e602983611d4b565b9150612849826127e2565b604082019050919050565b6000602082019050818103600083015261286d81612831565b9050919050565b7f4c27696e646972697a7a6f206e6f6e20657369737465206e656c206d6170706960008201527f6e67206f206e6f6e20636f6d62616369616e6f00000000000000000000000000602082015250565b60006128d0603383611d4b565b91506128db82612874565b604082019050919050565b600060208201905081810360008301526128ff816128c3565b9050919050565b60008190508160005260206000209050919050565b60006020601f8301049050919050565b600082821b905092915050565b6000600883026129687fffffffffffffffffffffffffffffffffffffffffffffffffffffffffffffffff8261292b565b612972868361292b565b95508019841693508086168417925050509392505050565b6000819050919050565b60006129af6129aa6129a584611b3a565b61298a565b611b3a565b9050919050565b6000819050919050565b6129c983612994565b6129dd6129d5826129b6565b848454612938565b825550505050565b600090565b6129f26129e5565b6129fd8184846129c0565b505050565b5b81811015612a2157612a166000826129ea565b600181019050612a03565b5050565b601f821115612a6657612a3781612906565b612a408461291b565b81016020851015612a4f578190505b612a63612a5b8561291b565b830182612a02565b50505b505050565b600082821c905092915050565b6000612a8960001984600802612a6b565b1980831691505092915050565b6000612aa28383612a78565b9150826002028217905092915050565b612abb82611d40565b67ffffffffffffffff811115612ad457612ad3611eda565b5b612ade8254612647565b612ae9828285612a25565b600060209050601f831160018114612b1c5760008415612b0a578287015190505b612b148582612a96565b865550612b7c565b601f198416612b2a86612906565b60005b82811015612b5257848901518255600182019150602085019450602081019050612b2d565b86831015612b6f5784890151612b6b601f891682612a78565b8355505b6001600288020188555050505b505050505050565b6000612b8f82611b3a565b9150612b9a83611b3a565b925082612baa57612ba961241e565b5b828204905092915050565b7f4e6f6d6520696e73657269746f206e6f6e2076616c69646f0000000000000000600082015250565b6000612beb601883611d4b565b9150612bf682612bb5565b602082019050919050565b60006020820190508181036000830152612c1a81612bde565b905091905056fea2646970667358221220c2d0a78aad5d581bba02572c0b25dbad3aee9e7b1c512f54bb874cf6296a5d6664736f6c63430008130033",
  "immutableReferences": {},
  "source": "// SPDX-License-Identifier: MIT\r\nimport \"./Profile.sol\";\r\npragma solidity ^0.8.19;\r\n\r\n\r\ncontract Roulette is Profile{\r\n  \r\n  uint betAmount;\r\n  uint necessaryBalance;\r\n  uint nextRoundTimestamp;\r\n  uint256 maxAmountAllowedInTheBank;\r\n  mapping (address => uint256) winnings;\r\n  uint8[] payouts;\r\n  uint8[] numberRange;\r\n  uint estratto;\r\n  \r\n  /*\r\n    BetTypes are as follow:\r\n      0: color\r\n      1: column\r\n      2: dozen\r\n      3: eighteen\r\n      4: modulus\r\n      5: number\r\n      \r\n    Depending on the BetType, number will be:\r\n      color: 0 for black, 1 for red\r\n      column: 0 for left, 1 for middle, 2 for right\r\n      dozen: 0 for first, 1 for second, 2 for third\r\n      eighteen: 0 for low, 1 for high\r\n      modulus: 0 for even, 1 for odd\r\n      number: number\r\n  */\r\n  \r\n  struct Bet {\r\n    address player;\r\n    uint8 betType;\r\n    uint8 number;\r\n    uint amount;\r\n  }\r\n  Bet[] public bets;\r\n  \r\n  constructor() payable {\r\n    necessaryBalance = 0;\r\n    nextRoundTimestamp = block.timestamp;\r\n    payouts = [1,2,2,1,1,35];//moltiplicatori giocate es nero paga x1 ma non scala la puntata\r\n    numberRange = [1,2,2,1,1,36];\r\n    betAmount = 10000000000000000; /* 0.01 ether */\r\n    maxAmountAllowedInTheBank = 2000000000000000000; /* 2 ether */\r\n  }\r\n\r\n  event RandomNumber(uint256 number);\r\n  \r\n  function getStatus() public view returns(uint, uint, uint, uint) {\r\n    return (\r\n      bets.length,             // number of active bets\r\n      bets.length * betAmount, // value of active bets\r\n      nextRoundTimestamp,      // when can we play again\r\n      winnings[msg.sender]     // winnings of player\r\n    ); \r\n  }\r\n\r\n\r\n\r\n  function bet(uint8 number, uint8 betType,uint256 am) payable public{\r\n\r\n    /* \r\n       A bet is valid when:\r\n       1 - the value of the bet is correct (=betAmount)\r\n       2 - betType is known (between 0 and 5)\r\n       3 - the option betted is valid (don't bet on 37!)\r\n       4 - the bank has sufficient funds to pay the bet\r\n     */\r\n      //require(msg.value == betAmount, \"non hai versato abbastanza fondi\");                               // 1\r\n    // require(amount>=10000000000000000,\"per ogni puntata almeno 0.01eth\");\r\n    require(betType >= 0 && betType <= 5, \"non hai inserito la giusta giocata\");                         // 2\r\n    require(number >= 0 && number <= numberRange[betType], \"che numero di giocata hai selezionato?\");        // 3\r\n   \r\n      // uint payoutForThisBet = payouts[betType] * msg.value; \r\n     //  uint provisionalBalance = necessaryBalance + payoutForThisBet;\r\n    // require(provisionalBalance < address(this).balance, \"la banca non ha abbastanza fondi da darti se vincessi\");           // 4\r\n     /* we are good to go */\r\n      //necessaryBalance += payoutForThisBet;\r\n\r\n\r\n    bets.push(Bet({\r\n      amount: am,\r\n      betType: betType,\r\n      player: msg.sender,\r\n      number: number\r\n    }));\r\n\r\n  }\r\n\r\n/*\r\n    function savebets(string[] memory _rouletteBet) payable public returns(uint){\r\n\r\n      uint lung= _rouletteBet.length;\r\n      uint8 i=0;\r\n      for(i=0;i<lung;i+3){\r\n        bets.push(Bet({\r\n      //amount: _rouletteBet[i],\r\n      amount: 10000000000000000,\r\n      betType: 1,\r\n      player: msg.sender,\r\n      number: 1\r\n    }));\r\n      }\r\n\r\n    uint b=bets.length;\r\n\r\n    return b;\r\n    }*/\r\n\r\n\r\n//prova per valutare la corretta esecuzione della funzione bet\r\n function getBet() public view returns(uint,uint8,uint8,uint,uint){\r\n  uint lung= bets.length;\r\n  Bet memory b= bets[lung-1];\r\n       return (\r\n        b.amount,\r\n        b.betType,\r\n        b.number,\r\n        lung,\r\n        address(this).balance\r\n       );\r\n    \r\n  }\r\n\r\n  function getNumber() public view returns(uint){\r\n       return estratto;\r\n  }\r\n\r\n\r\n   function spinWheel() public {\r\n    /* are there any bets? */\r\n    require(bets.length > 0, \"non ci sono giocate\");\r\n    //require(msg.value > 10000000000000000 wei, \"non sono stati versati abbastanza fondi \");  \r\n    /* are we allowed to spin the wheel? */\r\n    require(block.timestamp > nextRoundTimestamp, \"non e passato abbastanza tempo per poter rigiocare\");\r\n    /* next time we are allowed to spin the wheel again */\r\n    nextRoundTimestamp = block.timestamp;\r\n    /* calculate 'random' number */\r\n    uint diff = block.difficulty;\r\n    bytes32 hash = blockhash(block.number-1);\r\n    Bet memory lb = bets[bets.length-1];\r\n    uint number = uint(keccak256(abi.encodePacked(block.timestamp, diff, hash, lb.betType, lb.player, lb.number))) % 37;\r\n    /* check every bet for this number */ \r\n    //for (uint i = 0; i < bets.length; i++) {\r\n     uint i=bets.length-1;\r\n      bool won = false;\r\n      Bet memory b = bets[i];\r\n      betAmount=bets[i].amount;\r\n      if (number == 0) {\r\n        won = (b.betType == 5 && b.number == 0);                   /* bet on 0 */\r\n      } else {\r\n        if (b.betType == 5) { \r\n          won = (b.number == number);                              /* bet on number */\r\n        } else if (b.betType == 4) {\r\n          if (b.number == 0) won = (number % 2 == 0);              /* bet on even */\r\n          if (b.number == 1) won = (number % 2 == 1);              /* bet on odd */\r\n        } else if (b.betType == 3) {            \r\n          if (b.number == 0) won = (number <= 18);                 /* bet on low 18s */\r\n          if (b.number == 1) won = (number >= 19);                 /* bet on high 18s */\r\n        } else if (b.betType == 2) {                               \r\n          if (b.number == 0) won = (number <= 12);                 /* bet on 1st dozen */\r\n          if (b.number == 1) won = (number > 12 && number <= 24);  /* bet on 2nd dozen */\r\n          if (b.number == 2) won = (number > 24);                  /* bet on 3rd dozen */\r\n        } else if (b.betType == 1) {               \r\n          if (b.number == 0) won = (number % 3 == 1);              /* bet on left column */\r\n          if (b.number == 1) won = (number % 3 == 2);              /* bet on middle column */\r\n          if (b.number == 2) won = (number % 3 == 0);              /* bet on right column */\r\n        } else if (b.betType == 0) {\r\n          if (b.number == 0) {                                     /* bet on black */\r\n            if (number <= 10 || (number >= 20 && number <= 28)) {\r\n              won = (number % 2 == 0);\r\n            } else {\r\n              won = (number % 2 == 1);\r\n            }\r\n          } else {                                                 /* bet on red */\r\n            if (number <= 10 || (number >= 20 && number <= 28)) {\r\n              won = (number % 2 == 1);\r\n            } else {\r\n              won = (number % 2 == 0);\r\n            }\r\n          }\r\n        }\r\n    //  }\r\n      addToPlayer[b.player].totalCashFlow +=betAmount;\r\n\r\n\r\n      /* if winning bet, add to player winnings balance */\r\n      if (won) {\r\n        //aggiungiamo il saldo all utente\r\n       // winnings[b.player] += betAmount * payouts[b.betType];\r\n        //aggiorniamo le giocate del giocatore;\r\n        addToPlayer[b.player].game +=1;\r\n        addToPlayer[b.player].gameWin +=1;\r\n        addToPlayer[b.player].cashInBank += betAmount * payouts[b.betType];\r\n      }else{\r\n        //togliamo saldo all'utente\r\n        addToPlayer[b.player].cashInBank -=betAmount;\r\n        addToPlayer[b.player].game +=1;\r\n      }\r\n    }\r\n    /* delete all bets */\r\n    //bets.length = 0;\r\n    delete bets;\r\n\r\n    /* reset necessaryBalance */\r\n    necessaryBalance = 0;\r\n\r\n    /* returns 'random' number to UI */\r\n    emit RandomNumber(number);\r\n    //return number;\r\n  }\r\n\r\n\r\n  /*\r\n\r\n  function cashOut() public {\r\n    address payable player = payable(msg.sender);\r\n    uint256 amount = winnings[player];\r\n    require(amount > 0);\r\n    require(amount <= address(this).balance);\r\n    winnings[player] = 0;\r\n    player.transfer(amount);\r\n  }\r\n  \r\n  function takeProfits() internal {\r\n    uint amount = address(this).balance - maxAmountAllowedInTheBank;\r\n    if (amount > 0) creator.transfer(amount);\r\n  }\r\n  \r\n  function creatorKill() public {\r\n    require(msg.sender == creator);\r\n    \r\n    creator.transfer(address(this).balance);\r\n    //selfdestruct(creator);\r\n  }\r\n  */\r\n \r\n}",
  "sourcePath": "/Users/mac_marco/BlockBet/contracts/Roulette.sol",
  "compiler": {
    "name": "solc",
    "version": "0.8.19+commit.7dd6d404.Emscripten.clang"
  },
  "schemaVersion": "3.4.16",
  "updatedAt": "2024-02-13T16:56:13.608Z",
  "networkType": "ethereum",
  "devdoc": {
    "kind": "dev",
    "methods": {},
    "version": 1
  },
  "userdoc": {
    "kind": "user",
    "methods": {},
    "version": 1
  }
}